{
  "contractName": "Register",
  "abi": [
    {
      "inputs": [],
      "payable": false,
      "stateMutability": "nonpayable",
      "type": "constructor"
    },
    {
      "constant": true,
      "inputs": [],
      "name": "userCount",
      "outputs": [
        {
          "internalType": "uint256",
          "name": "",
          "type": "uint256"
        }
      ],
      "payable": false,
      "stateMutability": "view",
      "type": "function"
    },
    {
      "constant": true,
      "inputs": [
        {
          "internalType": "address",
          "name": "_addr",
          "type": "address"
        }
      ],
      "name": "isRegistered",
      "outputs": [
        {
          "internalType": "bool",
          "name": "",
          "type": "bool"
        }
      ],
      "payable": false,
      "stateMutability": "view",
      "type": "function"
    },
    {
      "constant": false,
      "inputs": [
        {
          "internalType": "string",
          "name": "_name",
          "type": "string"
        }
      ],
      "name": "register",
      "outputs": [],
      "payable": false,
      "stateMutability": "nonpayable",
      "type": "function"
    },
    {
      "constant": true,
      "inputs": [
        {
          "internalType": "address",
          "name": "_addr",
          "type": "address"
        }
      ],
      "name": "getMyProfile",
      "outputs": [
        {
          "internalType": "string",
          "name": "name",
          "type": "string"
        }
      ],
      "payable": false,
      "stateMutability": "view",
      "type": "function"
    }
  ],
  "bytecode": "0x6080604052600060025534801561001557600080fd5b50336000806101000a81548173ffffffffffffffffffffffffffffffffffffffff021916908373ffffffffffffffffffffffffffffffffffffffff160217905550610685806100656000396000f3fe608060405234801561001057600080fd5b506004361061004c5760003560e01c806307973ccf14610051578063bb609cd71461006f578063c3c5a5471461012c578063f2c298be14610188575b600080fd5b610059610243565b6040518082815260200191505060405180910390f35b6100b16004803603602081101561008557600080fd5b81019080803573ffffffffffffffffffffffffffffffffffffffff169060200190929190505050610249565b6040518080602001828103825283818151815260200191508051906020019080838360005b838110156100f15780820151818401526020810190506100d6565b50505050905090810190601f16801561011e5780820380516001836020036101000a031916815260200191505b509250505060405180910390f35b61016e6004803603602081101561014257600080fd5b81019080803573ffffffffffffffffffffffffffffffffffffffff1690602001909291905050506103a8565b604051808215151515815260200191505060405180910390f35b6102416004803603602081101561019e57600080fd5b81019080803590602001906401000000008111156101bb57600080fd5b8201836020820111156101cd57600080fd5b803590602001918460018302840111640100000000831117156101ef57600080fd5b91908080601f016020809104026020016040519081016040528093929190818152602001838380828437600081840152601f19601f820116905080830192505050505050509192919290505050610443565b005b60025481565b6060610254826103a8565b6102c6576040517f08c379a00000000000000000000000000000000000000000000000000000000081526004018080602001828103825260128152602001807f4552525f4745545f4d595f50524f46494c45000000000000000000000000000081525060200191505060405180910390fd5b600160008373ffffffffffffffffffffffffffffffffffffffff1673ffffffffffffffffffffffffffffffffffffffff1681526020019081526020016000206001018054600181600116156101000203166002900480601f01602080910402602001604051908101604052809291908181526020018280546001816001161561010002031660029004801561039c5780601f106103715761010080835404028352916020019161039c565b820191906000526020600020905b81548152906001019060200180831161037f57829003601f168201915b50505050509050919050565b60008073ffffffffffffffffffffffffffffffffffffffff16600160008473ffffffffffffffffffffffffffffffffffffffff1673ffffffffffffffffffffffffffffffffffffffff16815260200190815260200160002060000160009054906101000a900473ffffffffffffffffffffffffffffffffffffffff1673ffffffffffffffffffffffffffffffffffffffff1614159050919050565b6000339050610451816103a8565b156104c4576040517f08c379a00000000000000000000000000000000000000000000000000000000081526004018080602001828103825260118152602001807f4552525f49535f5245474953544552454400000000000000000000000000000081525060200191505060405180910390fd5b60405180604001604052808273ffffffffffffffffffffffffffffffffffffffff16815260200183815250600160008373ffffffffffffffffffffffffffffffffffffffff1673ffffffffffffffffffffffffffffffffffffffff16815260200190815260200160002060008201518160000160006101000a81548173ffffffffffffffffffffffffffffffffffffffff021916908373ffffffffffffffffffffffffffffffffffffffff16021790555060208201518160010190805190602001906105919291906105ab565b509050506002600081548092919060010191905055505050565b828054600181600116156101000203166002900490600052602060002090601f016020900481019282601f106105ec57805160ff191683800117855561061a565b8280016001018555821561061a579182015b828111156106195782518255916020019190600101906105fe565b5b509050610627919061062b565b5090565b61064d91905b80821115610649576000816000905550600101610631565b5090565b9056fea265627a7a72315820267d3fef55d5083fc09955f8b9311b475bb6cb08c9e9b3825ad259b8326f109264736f6c63430005100032",
  "source": "pragma solidity >=0.4.22 <0.9.0;\r\n\r\ncontract Register {\r\n        \r\n    struct User {\r\n        address addr;\r\n        string name;\r\n    }\r\n    \r\n    address owner;\r\n    \r\n    mapping(address => User) users;\r\n    uint public userCount = 0;\r\n    \r\n    // Kullanıcı kayıtlı mı?\r\n    function isRegistered(address _addr) public view returns(bool) {\r\n        return users[_addr].addr != address(0);\r\n    }\r\n    \r\n    // Kullanıcı kayıt et\r\n    function register(string memory _name) public {\r\n        address _addr = msg.sender;\r\n        require(!isRegistered(_addr), \"ERR_IS_REGISTERED\");\r\n        users[_addr] = User(_addr, _name);\r\n        userCount++;\r\n    }\r\n    \r\n    function getMyProfile(address _addr) public view returns(string memory name) {\r\n        require(isRegistered(_addr), \"ERR_GET_MY_PROFILE\");\r\n        return users[_addr].name;\r\n    }\r\n    \r\n    constructor() public {\r\n        owner = msg.sender;\r\n    }\r\n}",
  "sourcePath": "C:/Users/bayra/Documents/projects/My/ethereum/vote-app-frontend/dapp/contracts/Register.sol",
  "compiler": {
    "name": "solc",
    "version": "0.5.16+commit.9c3226ce.Emscripten.clang"
  },
  "schemaVersion": "3.3.3",
  "updatedAt": "2021-02-07T20:06:37.312Z",
  "networkType": "ethereum",
  "devdoc": {
    "methods": {}
  },
  "userdoc": {
    "methods": {}
  }
}