{
  "contractName": "Users",
  "abi": [
    {
      "inputs": [],
      "payable": false,
      "stateMutability": "nonpayable",
      "type": "constructor"
    },
    {
      "constant": true,
      "inputs": [
        {
          "internalType": "address",
          "name": "_addr",
          "type": "address"
        }
      ],
      "name": "isRegistered",
      "outputs": [
        {
          "internalType": "bool",
          "name": "",
          "type": "bool"
        }
      ],
      "payable": false,
      "stateMutability": "view",
      "type": "function"
    },
    {
      "constant": false,
      "inputs": [
        {
          "internalType": "string",
          "name": "_name",
          "type": "string"
        }
      ],
      "name": "register",
      "outputs": [],
      "payable": false,
      "stateMutability": "nonpayable",
      "type": "function"
    },
    {
      "constant": true,
      "inputs": [
        {
          "internalType": "address",
          "name": "_addr",
          "type": "address"
        }
      ],
      "name": "getUser",
      "outputs": [
        {
          "internalType": "string",
          "name": "name",
          "type": "string"
        },
        {
          "internalType": "uint256",
          "name": "roleLevel",
          "type": "uint256"
        }
      ],
      "payable": false,
      "stateMutability": "view",
      "type": "function"
    },
    {
      "constant": true,
      "inputs": [],
      "name": "getUsers",
      "outputs": [
        {
          "internalType": "address[]",
          "name": "",
          "type": "address[]"
        }
      ],
      "payable": false,
      "stateMutability": "view",
      "type": "function"
    }
  ],
  "bytecode": "0x6080604052600a600155600160025560405180604001604052806040518060400160405280600581526020017f41646d696e000000000000000000000000000000000000000000000000000000815250815260200160015481525060036000820151816000019080519060200190610078929190610412565b5060208201518160010155505060405180604001604052806040518060400160405280600481526020017f55736572000000000000000000000000000000000000000000000000000000008152508152602001600254815250600560008201518160000190805190602001906100ef929190610412565b50602082015181600101555050600060095534801561010d57600080fd5b50336000806101000a81548173ffffffffffffffffffffffffffffffffffffffff021916908373ffffffffffffffffffffffffffffffffffffffff1602179055506000809054906101000a900473ffffffffffffffffffffffffffffffffffffffff1660086000600954815260200190815260200160002060006101000a81548173ffffffffffffffffffffffffffffffffffffffff021916908373ffffffffffffffffffffffffffffffffffffffff16021790555060405180606001604052806000809054906101000a900473ffffffffffffffffffffffffffffffffffffffff1673ffffffffffffffffffffffffffffffffffffffff1681526020016040518060400160405280600d81526020017f42617972616d20414c4143414d0000000000000000000000000000000000000081525081526020016003604051806040016040529081600082018054600181600116156101000203166002900480601f0160208091040260200160405190810160405280929190818152602001828054600181600116156101000203166002900480156102ec5780601f106102c1576101008083540402835291602001916102ec565b820191906000526020600020905b8154815290600101906020018083116102cf57829003601f168201915b50505050508152602001600182015481525050815250600760008060009054906101000a900473ffffffffffffffffffffffffffffffffffffffff1673ffffffffffffffffffffffffffffffffffffffff1673ffffffffffffffffffffffffffffffffffffffff16815260200190815260200160002060008201518160000160006101000a81548173ffffffffffffffffffffffffffffffffffffffff021916908373ffffffffffffffffffffffffffffffffffffffff16021790555060208201518160010190805190602001906103c5929190610412565b5060408201518160020160008201518160000190805190602001906103eb929190610412565b506020820151816001015550509050506009600081548092919060010191905055506104b7565b828054600181600116156101000203166002900490600052602060002090601f016020900481019282601f1061045357805160ff1916838001178555610481565b82800160010185558215610481579182015b82811115610480578251825591602001919060010190610465565b5b50905061048e9190610492565b5090565b6104b491905b808211156104b0576000816000905550600101610498565b5090565b90565b61092d806104c66000396000f3fe608060405234801561001057600080fd5b506004361061004b5760003560e01c8062ce8e3e146100505780636f77926b146100af578063c3c5a54714610173578063f2c298be146101cf575b600080fd5b61005861028a565b6040518080602001828103825283818151815260200191508051906020019060200280838360005b8381101561009b578082015181840152602081019050610080565b505050509050019250505060405180910390f35b6100f1600480360360208110156100c557600080fd5b81019080803573ffffffffffffffffffffffffffffffffffffffff169060200190929190505050610360565b6040518080602001838152602001828103825284818151815260200191508051906020019080838360005b8381101561013757808201518184015260208101905061011c565b50505050905090810190601f1680156101645780820380516001836020036101000a031916815260200191505b50935050505060405180910390f35b6101b56004803603602081101561018957600080fd5b81019080803573ffffffffffffffffffffffffffffffffffffffff16906020019092919050505061050c565b604051808215151515815260200191505060405180910390f35b610288600480360360208110156101e557600080fd5b810190808035906020019064010000000081111561020257600080fd5b82018360208201111561021457600080fd5b8035906020019184600183028401116401000000008311171561023657600080fd5b91908080601f016020809104026020016040519081016040528093929190818152602001838380828437600081840152601f19601f8201169050808301925050505050505091929192905050506105a7565b005b6060806009546040519080825280602002602001820160405280156102be5781602001602082028038833980820191505090505b50905060008090505b600954811015610358576008600082815260200190815260200160002060009054906101000a900473ffffffffffffffffffffffffffffffffffffffff1682828151811061031157fe5b602002602001019073ffffffffffffffffffffffffffffffffffffffff16908173ffffffffffffffffffffffffffffffffffffffff168152505080806001019150506102c7565b508091505090565b6060600061036d8361050c565b6103df576040517f08c379a00000000000000000000000000000000000000000000000000000000081526004018080602001828103825260128152602001807f4552525f4745545f4d595f50524f46494c45000000000000000000000000000081525060200191505060405180910390fd5b600760008473ffffffffffffffffffffffffffffffffffffffff1673ffffffffffffffffffffffffffffffffffffffff168152602001908152602001600020600101600760008573ffffffffffffffffffffffffffffffffffffffff1673ffffffffffffffffffffffffffffffffffffffff16815260200190815260200160002060020160010154818054600181600116156101000203166002900480601f0160208091040260200160405190810160405280929190818152602001828054600181600116156101000203166002900480156104fc5780601f106104d1576101008083540402835291602001916104fc565b820191906000526020600020905b8154815290600101906020018083116104df57829003601f168201915b5050505050915091509150915091565b60008073ffffffffffffffffffffffffffffffffffffffff16600760008473ffffffffffffffffffffffffffffffffffffffff1673ffffffffffffffffffffffffffffffffffffffff16815260200190815260200160002060000160009054906101000a900473ffffffffffffffffffffffffffffffffffffffff1673ffffffffffffffffffffffffffffffffffffffff1614159050919050565b60003390506105b58161050c565b15610628576040517f08c379a00000000000000000000000000000000000000000000000000000000081526004018080602001828103825260118152602001807f4552525f49535f5245474953544552454400000000000000000000000000000081525060200191505060405180910390fd5b8060086000600954815260200190815260200160002060006101000a81548173ffffffffffffffffffffffffffffffffffffffff021916908373ffffffffffffffffffffffffffffffffffffffff16021790555060405180606001604052808273ffffffffffffffffffffffffffffffffffffffff1681526020018381526020016005604051806040016040529081600082018054600181600116156101000203166002900480601f01602080910402602001604051908101604052809291908181526020018280546001816001161561010002031660029004801561074f5780601f106107245761010080835404028352916020019161074f565b820191906000526020600020905b81548152906001019060200180831161073257829003601f168201915b50505050508152602001600182015481525050815250600760008373ffffffffffffffffffffffffffffffffffffffff1673ffffffffffffffffffffffffffffffffffffffff16815260200190815260200160002060008201518160000160006101000a81548173ffffffffffffffffffffffffffffffffffffffff021916908373ffffffffffffffffffffffffffffffffffffffff1602179055506020820151816001019080519060200190610807929190610853565b50604082015181600201600082015181600001908051906020019061082d929190610853565b506020820151816001015550509050506009600081548092919060010191905055505050565b828054600181600116156101000203166002900490600052602060002090601f016020900481019282601f1061089457805160ff19168380011785556108c2565b828001600101855582156108c2579182015b828111156108c15782518255916020019190600101906108a6565b5b5090506108cf91906108d3565b5090565b6108f591905b808211156108f15760008160009055506001016108d9565b5090565b9056fea265627a7a7231582016bbaa573061e47dc1418e937a722aaa734f4f17f6b42e32777e357b2e93d75f64736f6c63430005100032",
  "source": "pragma solidity >=0.4.22 <0.9.0;\r\n\r\ncontract Users {\r\n\r\n    struct Role {\r\n        string name;\r\n        uint level;\r\n    }\r\n\r\n    struct User {\r\n        address addr;\r\n        string name;\r\n        Role role;\r\n    }\r\n\r\n    address owner;\r\n\r\n    uint adminLevel = 10;\r\n    uint userLevel = 1;\r\n\r\n    Role adminRole = Role(\"Admin\", adminLevel);\r\n    Role userRole = Role(\"User\", userLevel);\r\n\r\n    mapping(address => User) users;\r\n    mapping(uint => address) addresses;\r\n    uint userCount = 0;\r\n\r\n    constructor() public {\r\n        owner = msg.sender;\r\n        addresses[userCount] = owner;\r\n        users[owner] = User(owner, \"Bayram ALACAM\", adminRole);\r\n        userCount++;\r\n    }\r\n\r\n    // Kullanıcı kayıtlı mı?\r\n    function isRegistered(address _addr) public view returns(bool) {\r\n        return users[_addr].addr != address(0);\r\n    }\r\n\r\n    // Kayıt ol\r\n    function register(string memory _name) public {\r\n        address _addr = msg.sender;\r\n        require(!isRegistered(_addr), \"ERR_IS_REGISTERED\");\r\n        addresses[userCount] = _addr;\r\n        users[_addr] = User(_addr, _name, userRole);\r\n        userCount++;\r\n    }\r\n    \r\n    // Kullanıcı bilgisini getir\r\n    function getUser(address _addr) public view returns(string memory name, uint roleLevel) {\r\n        require(isRegistered(_addr), \"ERR_GET_MY_PROFILE\");\r\n        return (users[_addr].name, users[_addr].role.level);\r\n    }\r\n    \r\n    // Tüm kullanıcılar\r\n    function getUsers() public view returns(address[] memory) {\r\n        address[] memory _addresses = new address[](userCount);\r\n        for (uint i = 0; i < userCount; i++) {\r\n            _addresses[i] = addresses[i];\r\n        }\r\n        return _addresses;\r\n    }\r\n\r\n\r\n}",
  "sourcePath": "C:/Users/bayra/Documents/projects/My/ethereum/vote-app-frontend/dapp/contracts/Users.sol",
  "compiler": {
    "name": "solc",
    "version": "0.5.16+commit.9c3226ce.Emscripten.clang"
  },
  "schemaVersion": "3.3.3",
  "updatedAt": "2021-02-07T22:55:03.575Z",
  "networkType": "ethereum",
  "devdoc": {
    "methods": {}
  },
  "userdoc": {
    "methods": {}
  }
}