{
  "contractName": "Votes",
  "abi": [
    {
      "constant": true,
      "inputs": [
        {
          "internalType": "address",
          "name": "_addr",
          "type": "address"
        }
      ],
      "name": "getUser",
      "outputs": [
        {
          "internalType": "string",
          "name": "name",
          "type": "string"
        },
        {
          "internalType": "uint256",
          "name": "roleLevel",
          "type": "uint256"
        }
      ],
      "payable": false,
      "stateMutability": "view",
      "type": "function"
    },
    {
      "constant": true,
      "inputs": [],
      "name": "getUsers",
      "outputs": [
        {
          "internalType": "address[]",
          "name": "",
          "type": "address[]"
        }
      ],
      "payable": false,
      "stateMutability": "view",
      "type": "function"
    },
    {
      "constant": true,
      "inputs": [
        {
          "internalType": "address",
          "name": "_addr",
          "type": "address"
        }
      ],
      "name": "isRegistered",
      "outputs": [
        {
          "internalType": "bool",
          "name": "",
          "type": "bool"
        }
      ],
      "payable": false,
      "stateMutability": "view",
      "type": "function"
    },
    {
      "constant": false,
      "inputs": [
        {
          "internalType": "string",
          "name": "_name",
          "type": "string"
        }
      ],
      "name": "register",
      "outputs": [],
      "payable": false,
      "stateMutability": "nonpayable",
      "type": "function"
    },
    {
      "constant": false,
      "inputs": [
        {
          "internalType": "string",
          "name": "_name",
          "type": "string"
        }
      ],
      "name": "setName",
      "outputs": [],
      "payable": false,
      "stateMutability": "nonpayable",
      "type": "function"
    },
    {
      "constant": false,
      "inputs": [
        {
          "internalType": "address",
          "name": "_addr",
          "type": "address"
        },
        {
          "internalType": "uint256",
          "name": "_roleLevel",
          "type": "uint256"
        }
      ],
      "name": "setUserRole",
      "outputs": [],
      "payable": false,
      "stateMutability": "nonpayable",
      "type": "function"
    },
    {
      "constant": true,
      "inputs": [
        {
          "internalType": "uint256",
          "name": "",
          "type": "uint256"
        }
      ],
      "name": "usedVotes",
      "outputs": [
        {
          "internalType": "address",
          "name": "addr",
          "type": "address"
        },
        {
          "internalType": "uint256",
          "name": "voteId",
          "type": "uint256"
        },
        {
          "internalType": "bool",
          "name": "vote",
          "type": "bool"
        }
      ],
      "payable": false,
      "stateMutability": "view",
      "type": "function"
    },
    {
      "constant": true,
      "inputs": [],
      "name": "voteCount",
      "outputs": [
        {
          "internalType": "uint256",
          "name": "",
          "type": "uint256"
        }
      ],
      "payable": false,
      "stateMutability": "view",
      "type": "function"
    },
    {
      "constant": true,
      "inputs": [
        {
          "internalType": "uint256",
          "name": "",
          "type": "uint256"
        }
      ],
      "name": "votes",
      "outputs": [
        {
          "internalType": "uint256",
          "name": "id",
          "type": "uint256"
        },
        {
          "internalType": "string",
          "name": "subject",
          "type": "string"
        },
        {
          "internalType": "string",
          "name": "detail",
          "type": "string"
        },
        {
          "internalType": "uint256",
          "name": "startDate",
          "type": "uint256"
        },
        {
          "internalType": "uint256",
          "name": "endDate",
          "type": "uint256"
        },
        {
          "internalType": "uint256",
          "name": "status",
          "type": "uint256"
        }
      ],
      "payable": false,
      "stateMutability": "view",
      "type": "function"
    },
    {
      "constant": false,
      "inputs": [
        {
          "internalType": "uint256",
          "name": "_id",
          "type": "uint256"
        },
        {
          "internalType": "bool",
          "name": "_vote",
          "type": "bool"
        }
      ],
      "name": "useVote",
      "outputs": [],
      "payable": false,
      "stateMutability": "nonpayable",
      "type": "function"
    },
    {
      "constant": true,
      "inputs": [
        {
          "internalType": "address",
          "name": "_addr",
          "type": "address"
        }
      ],
      "name": "usedVoteList",
      "outputs": [
        {
          "internalType": "uint256[]",
          "name": "",
          "type": "uint256[]"
        }
      ],
      "payable": false,
      "stateMutability": "view",
      "type": "function"
    },
    {
      "constant": true,
      "inputs": [
        {
          "internalType": "uint256",
          "name": "_id",
          "type": "uint256"
        }
      ],
      "name": "usedVote",
      "outputs": [
        {
          "internalType": "bool",
          "name": "",
          "type": "bool"
        }
      ],
      "payable": false,
      "stateMutability": "view",
      "type": "function"
    },
    {
      "constant": false,
      "inputs": [
        {
          "internalType": "string",
          "name": "_subject",
          "type": "string"
        },
        {
          "internalType": "string",
          "name": "_detail",
          "type": "string"
        },
        {
          "internalType": "uint256",
          "name": "_endDate",
          "type": "uint256"
        }
      ],
      "name": "createVote",
      "outputs": [],
      "payable": false,
      "stateMutability": "nonpayable",
      "type": "function"
    },
    {
      "constant": true,
      "inputs": [
        {
          "internalType": "uint256",
          "name": "_id",
          "type": "uint256"
        }
      ],
      "name": "getVote",
      "outputs": [
        {
          "internalType": "uint256",
          "name": "id",
          "type": "uint256"
        },
        {
          "internalType": "string",
          "name": "subject",
          "type": "string"
        },
        {
          "internalType": "string",
          "name": "detail",
          "type": "string"
        },
        {
          "internalType": "uint256",
          "name": "startDate",
          "type": "uint256"
        },
        {
          "internalType": "uint256",
          "name": "endDate",
          "type": "uint256"
        },
        {
          "internalType": "uint256",
          "name": "status",
          "type": "uint256"
        }
      ],
      "payable": false,
      "stateMutability": "view",
      "type": "function"
    },
    {
      "constant": false,
      "inputs": [
        {
          "internalType": "uint256",
          "name": "_id",
          "type": "uint256"
        },
        {
          "internalType": "uint256",
          "name": "_status",
          "type": "uint256"
        }
      ],
      "name": "setVoteStatus",
      "outputs": [],
      "payable": false,
      "stateMutability": "nonpayable",
      "type": "function"
    }
  ],
  "bytecode": "0x6080604052600a600155600160025560405180604001604052806040518060400160405280600581526020017f41646d696e0000000000000000000000000000000000000000000000000000008152508152602001600154815250600360008201518160000190805190602001906200007a9291906200042b565b5060208201518160010155505060405180604001604052806040518060400160405280600481526020017f5573657200000000000000000000000000000000000000000000000000000000815250815260200160025481525060056000820151816000019080519060200190620000f39291906200042b565b5060208201518160010155505060006009556000600a556000600b556001600c556002600d556000600f55336000806101000a81548173ffffffffffffffffffffffffffffffffffffffff021916908373ffffffffffffffffffffffffffffffffffffffff1602179055506000809054906101000a900473ffffffffffffffffffffffffffffffffffffffff1660086000600954815260200190815260200160002060006101000a81548173ffffffffffffffffffffffffffffffffffffffff021916908373ffffffffffffffffffffffffffffffffffffffff16021790555060405180606001604052806000809054906101000a900473ffffffffffffffffffffffffffffffffffffffff1673ffffffffffffffffffffffffffffffffffffffff1681526020016040518060400160405280600d81526020017f42617972616d20414c4143414d0000000000000000000000000000000000000081525081526020016003604051806040016040529081600082018054600181600116156101000203166002900480601f016020809104026020016040519081016040528092919081815260200182805460018160011615610100020316600290048015620003005780601f10620002d45761010080835404028352916020019162000300565b820191906000526020600020905b815481529060010190602001808311620002e257829003601f168201915b50505050508152602001600182015481525050815250600760008060009054906101000a900473ffffffffffffffffffffffffffffffffffffffff1673ffffffffffffffffffffffffffffffffffffffff1673ffffffffffffffffffffffffffffffffffffffff16815260200190815260200160002060008201518160000160006101000a81548173ffffffffffffffffffffffffffffffffffffffff021916908373ffffffffffffffffffffffffffffffffffffffff1602179055506020820151816001019080519060200190620003db9291906200042b565b506040820151816002016000820151816000019080519060200190620004039291906200042b565b50602082015181600101555050905050600960008154809291906001019190505550620004da565b828054600181600116156101000203166002900490600052602060002090601f016020900481019282601f106200046e57805160ff19168380011785556200049f565b828001600101855582156200049f579182015b828111156200049e57825182559160200191906001019062000481565b5b509050620004ae9190620004b2565b5090565b620004d791905b80821115620004d3576000816000905550600101620004b9565b5090565b90565b61253b80620004ea6000396000f3fe608060405234801561001057600080fd5b50600436106100f45760003560e01c8063937cabed11610097578063c638407111610066578063c638407114610884578063c8444031146108a2578063f2c298be146108f0578063fe576150146109ab576100f4565b8063937cabed146105cb578063b2c9f43314610727578063c3c5a5471461076d578063c47f0027146107c9576100f4565b80635a55c1f0116100d35780635a55c1f0146102105780635df813301461033f5780636f77926b1461046e57806389014e5d14610532576100f4565b8062ce8e3e146100f95780630996435714610158578063356a1bb6146101d8575b600080fd5b6101016109e5565b6040518080602001828103825283818151815260200191508051906020019060200280838360005b83811015610144578082015181840152602081019050610129565b505050509050019250505060405180910390f35b6101846004803603602081101561016e57600080fd5b8101908080359060200190929190505050610abb565b604051808473ffffffffffffffffffffffffffffffffffffffff1673ffffffffffffffffffffffffffffffffffffffff16815260200183815260200182151515158152602001935050505060405180910390f35b61020e600480360360408110156101ee57600080fd5b810190808035906020019092919080359060200190929190505050610b12565b005b61023c6004803603602081101561022657600080fd5b8101908080359060200190929190505050610e16565b604051808781526020018060200180602001868152602001858152602001848152602001838103835288818151815260200191508051906020019080838360005b8381101561029857808201518184015260208101905061027d565b50505050905090810190601f1680156102c55780820380516001836020036101000a031916815260200191505b50838103825287818151815260200191508051906020019080838360005b838110156102fe5780820151818401526020810190506102e3565b50505050905090810190601f16801561032b5780820380516001836020036101000a031916815260200191505b509850505050505050505060405180910390f35b61036b6004803603602081101561035557600080fd5b8101908080359060200190929190505050611081565b604051808781526020018060200180602001868152602001858152602001848152602001838103835288818151815260200191508051906020019080838360005b838110156103c75780820151818401526020810190506103ac565b50505050905090810190601f1680156103f45780820380516001836020036101000a031916815260200191505b50838103825287818151815260200191508051906020019080838360005b8381101561042d578082015181840152602081019050610412565b50505050905090810190601f16801561045a5780820380516001836020036101000a031916815260200191505b509850505050505050505060405180910390f35b6104b06004803603602081101561048457600080fd5b81019080803573ffffffffffffffffffffffffffffffffffffffff1690602001909291905050506111ed565b6040518080602001838152602001828103825284818151815260200191508051906020019080838360005b838110156104f65780820151818401526020810190506104db565b50505050905090810190601f1680156105235780820380516001836020036101000a031916815260200191505b50935050505060405180910390f35b6105746004803603602081101561054857600080fd5b81019080803573ffffffffffffffffffffffffffffffffffffffff169060200190929190505050611399565b6040518080602001828103825283818151815260200191508051906020019060200280838360005b838110156105b757808201518184015260208101905061059c565b505050509050019250505060405180910390f35b610725600480360360608110156105e157600080fd5b81019080803590602001906401000000008111156105fe57600080fd5b82018360208201111561061057600080fd5b8035906020019184600183028401116401000000008311171561063257600080fd5b91908080601f016020809104026020016040519081016040528093929190818152602001838380828437600081840152601f19601f8201169050808301925050505050505091929192908035906020019064010000000081111561069557600080fd5b8201836020820111156106a757600080fd5b803590602001918460018302840111640100000000831117156106c957600080fd5b91908080601f016020809104026020016040519081016040528093929190818152602001838380828437600081840152601f19601f8201169050808301925050505050505091929192908035906020019092919050505061151f565b005b6107536004803603602081101561073d57600080fd5b8101908080359060200190929190505050611719565b604051808215151515815260200191505060405180910390f35b6107af6004803603602081101561078357600080fd5b81019080803573ffffffffffffffffffffffffffffffffffffffff16906020019092919050505061181e565b604051808215151515815260200191505060405180910390f35b610882600480360360208110156107df57600080fd5b81019080803590602001906401000000008111156107fc57600080fd5b82018360208201111561080e57600080fd5b8035906020019184600183028401116401000000008311171561083057600080fd5b91908080601f016020809104026020016040519081016040528093929190818152602001838380828437600081840152601f19601f8201169050808301925050505050505091929192905050506118b9565b005b61088c611994565b6040518082815260200191505060405180910390f35b6108ee600480360360408110156108b857600080fd5b81019080803573ffffffffffffffffffffffffffffffffffffffff1690602001909291908035906020019092919050505061199a565b005b6109a96004803603602081101561090657600080fd5b810190808035906020019064010000000081111561092357600080fd5b82018360208201111561093557600080fd5b8035906020019184600183028401116401000000008311171561095757600080fd5b91908080601f016020809104026020016040519081016040528093929190818152602001838380828437600081840152601f19601f820116905080830192505050505050509192919290505050611ca1565b005b6109e3600480360360408110156109c157600080fd5b8101908080359060200190929190803515159060200190929190505050611f4d565b005b606080600954604051908082528060200260200182016040528015610a195781602001602082028038833980820191505090505b50905060008090505b600954811015610ab3576008600082815260200190815260200160002060009054906101000a900473ffffffffffffffffffffffffffffffffffffffff16828281518110610a6c57fe5b602002602001019073ffffffffffffffffffffffffffffffffffffffff16908173ffffffffffffffffffffffffffffffffffffffff16815250508080600101915050610a22565b508091505090565b60106020528060005260406000206000915090508060000160009054906101000a900473ffffffffffffffffffffffffffffffffffffffff16908060010154908060020160009054906101000a900460ff16905083565b600154600760003373ffffffffffffffffffffffffffffffffffffffff1673ffffffffffffffffffffffffffffffffffffffff1681526020019081526020016000206002016001015414610bce576040517f08c379a00000000000000000000000000000000000000000000000000000000081526004018080602001828103825260138152602001807f4552525f4f4e4c595f41444d494e5f524f4c450000000000000000000000000081525060200191505060405180910390fd5b60008110158015610be0575060028111155b610c52576040517f08c379a00000000000000000000000000000000000000000000000000000000081526004018080602001828103825260158152602001807f4552525f5345545f564f54455f5354415455535f31000000000000000000000081525060200191505060405180910390fd5b6000600e6000848152602001908152602001600020600001541415610cdf576040517f08c379a00000000000000000000000000000000000000000000000000000000081526004018080602001828103825260158152602001807f4552525f5345545f564f54455f5354415455535f32000000000000000000000081525060200191505060405180910390fd5b6000600e6000848152602001908152602001600020600501541415610d6c576040517f08c379a00000000000000000000000000000000000000000000000000000000081526004018080602001828103825260158152602001807f4552525f5345545f564f54455f5354415455535f33000000000000000000000081525060200191505060405180910390fd5b42600e60008481526020019081526020016000206004015411610df7576040517f08c379a00000000000000000000000000000000000000000000000000000000081526004018080602001828103825260158152602001807f4552525f5345545f564f54455f5354415455535f34000000000000000000000081525060200191505060405180910390fd5b80600e6000848152602001908152602001600020600501819055505050565b6000606080600080600080600e6000898152602001908152602001600020600001541415610eac576040517f08c379a000000000000000000000000000000000000000000000000000000000815260040180806020018281038252600c8152602001807f4552525f4745545f564f5445000000000000000000000000000000000000000081525060200191505060405180910390fd5b600e600088815260200190815260200160002060000154600e6000898152602001908152602001600020600101600e60008a8152602001908152602001600020600201600e60008b815260200190815260200160002060030154600e60008c815260200190815260200160002060040154600e60008d815260200190815260200160002060050154848054600181600116156101000203166002900480601f016020809104026020016040519081016040528092919081815260200182805460018160011615610100020316600290048015610fc95780601f10610f9e57610100808354040283529160200191610fc9565b820191906000526020600020905b815481529060010190602001808311610fac57829003601f168201915b50505050509450838054600181600116156101000203166002900480601f0160208091040260200160405190810160405280929190818152602001828054600181600116156101000203166002900480156110655780601f1061103a57610100808354040283529160200191611065565b820191906000526020600020905b81548152906001019060200180831161104857829003601f168201915b5050505050935095509550955095509550955091939550919395565b600e602052806000526040600020600091509050806000015490806001018054600181600116156101000203166002900480601f0160208091040260200160405190810160405280929190818152602001828054600181600116156101000203166002900480156111335780601f1061110857610100808354040283529160200191611133565b820191906000526020600020905b81548152906001019060200180831161111657829003601f168201915b505050505090806002018054600181600116156101000203166002900480601f0160208091040260200160405190810160405280929190818152602001828054600181600116156101000203166002900480156111d15780601f106111a6576101008083540402835291602001916111d1565b820191906000526020600020905b8154815290600101906020018083116111b457829003601f168201915b5050505050908060030154908060040154908060050154905086565b606060006111fa8361181e565b61126c576040517f08c379a00000000000000000000000000000000000000000000000000000000081526004018080602001828103825260128152602001807f4552525f4745545f4d595f50524f46494c45000000000000000000000000000081525060200191505060405180910390fd5b600760008473ffffffffffffffffffffffffffffffffffffffff1673ffffffffffffffffffffffffffffffffffffffff168152602001908152602001600020600101600760008573ffffffffffffffffffffffffffffffffffffffff1673ffffffffffffffffffffffffffffffffffffffff16815260200190815260200160002060020160010154818054600181600116156101000203166002900480601f0160208091040260200160405190810160405280929190818152602001828054600181600116156101000203166002900480156113895780601f1061135e57610100808354040283529160200191611389565b820191906000526020600020905b81548152906001019060200180831161136c57829003601f168201915b5050505050915091509150915091565b6060600080905060008090506000600190505b600f548111611435578473ffffffffffffffffffffffffffffffffffffffff166010600083815260200190815260200160002060000160009054906101000a900473ffffffffffffffffffffffffffffffffffffffff1673ffffffffffffffffffffffffffffffffffffffff1614156114285782806001019350505b80806001019150506113ac565b506060826040519080825280602002602001820160405280156114675781602001602082028038833980820191505090505b5090506000600190505b600f548111611513578573ffffffffffffffffffffffffffffffffffffffff166010600083815260200190815260200160002060000160009054906101000a900473ffffffffffffffffffffffffffffffffffffffff1673ffffffffffffffffffffffffffffffffffffffff16141561150657808284815181106114f157fe5b60200260200101818152505082806001019350505b8080600101915050611471565b50809350505050919050565b600154600760003373ffffffffffffffffffffffffffffffffffffffff1673ffffffffffffffffffffffffffffffffffffffff16815260200190815260200160002060020160010154146115db576040517f08c379a00000000000000000000000000000000000000000000000000000000081526004018080602001828103825260138152602001807f4552525f4f4e4c595f41444d494e5f524f4c450000000000000000000000000081525060200191505060405180910390fd5b600042905080821015611656576040517f08c379a000000000000000000000000000000000000000000000000000000000815260040180806020018281038252600f8152602001807f4552525f4352454154455f564f5445000000000000000000000000000000000081525060200191505060405180910390fd5b600a600081548092919060010191905055506040518060c00160405280600a548152602001858152602001848152602001828152602001838152602001600c54815250600e6000600a5481526020019081526020016000206000820151816000015560208201518160010190805190602001906116d492919061235a565b5060408201518160020190805190602001906116f192919061235a565b50606082015181600301556080820151816004015560a0820151816005015590505050505050565b60008073ffffffffffffffffffffffffffffffffffffffff166010600084815260200190815260200160002060000160009054906101000a900473ffffffffffffffffffffffffffffffffffffffff1673ffffffffffffffffffffffffffffffffffffffff1614156117f3576040517f08c379a000000000000000000000000000000000000000000000000000000000815260040180806020018281038252600d8152602001807f4552525f555345445f564f54450000000000000000000000000000000000000081525060200191505060405180910390fd5b6010600083815260200190815260200160002060020160009054906101000a900460ff169050919050565b60008073ffffffffffffffffffffffffffffffffffffffff16600760008473ffffffffffffffffffffffffffffffffffffffff1673ffffffffffffffffffffffffffffffffffffffff16815260200190815260200160002060000160009054906101000a900473ffffffffffffffffffffffffffffffffffffffff1673ffffffffffffffffffffffffffffffffffffffff1614159050919050565b60003390506118c78161181e565b611939576040517f08c379a000000000000000000000000000000000000000000000000000000000815260040180806020018281038252600e8152602001807f4552525f5345545f4e414d455f3100000000000000000000000000000000000081525060200191505060405180910390fd5b81600760008373ffffffffffffffffffffffffffffffffffffffff1673ffffffffffffffffffffffffffffffffffffffff168152602001908152602001600020600101908051906020019061198f9291906123da565b505050565b600a5481565b600154600760003373ffffffffffffffffffffffffffffffffffffffff1673ffffffffffffffffffffffffffffffffffffffff1681526020019081526020016000206002016001015414611a56576040517f08c379a00000000000000000000000000000000000000000000000000000000081526004018080602001828103825260138152602001807f4552525f4f4e4c595f41444d494e5f524f4c450000000000000000000000000081525060200191505060405180910390fd5b6000809054906101000a900473ffffffffffffffffffffffffffffffffffffffff1673ffffffffffffffffffffffffffffffffffffffff168273ffffffffffffffffffffffffffffffffffffffff161415611b19576040517f08c379a00000000000000000000000000000000000000000000000000000000081526004018080602001828103825260138152602001807f4552525f5345545f555345525f524f4c455f310000000000000000000000000081525060200191505060405180910390fd5b600254811480611b2a575060015481145b611b9c576040517f08c379a00000000000000000000000000000000000000000000000000000000081526004018080602001828103825260138152602001807f4552525f5345545f555345525f524f4c455f320000000000000000000000000081525060200191505060405180910390fd5b600a811415611c23576003600760008473ffffffffffffffffffffffffffffffffffffffff1673ffffffffffffffffffffffffffffffffffffffff16815260200190815260200160002060020160008201816000019080546001816001161561010002031660029004611c1092919061245a565b5060018201548160010155905050611c9d565b6005600760008473ffffffffffffffffffffffffffffffffffffffff1673ffffffffffffffffffffffffffffffffffffffff16815260200190815260200160002060020160008201816000019080546001816001161561010002031660029004611c8e92919061245a565b50600182015481600101559050505b5050565b6000339050611caf8161181e565b15611d22576040517f08c379a00000000000000000000000000000000000000000000000000000000081526004018080602001828103825260118152602001807f4552525f49535f5245474953544552454400000000000000000000000000000081525060200191505060405180910390fd5b8060086000600954815260200190815260200160002060006101000a81548173ffffffffffffffffffffffffffffffffffffffff021916908373ffffffffffffffffffffffffffffffffffffffff16021790555060405180606001604052808273ffffffffffffffffffffffffffffffffffffffff1681526020018381526020016005604051806040016040529081600082018054600181600116156101000203166002900480601f016020809104026020016040519081016040528092919081815260200182805460018160011615610100020316600290048015611e495780601f10611e1e57610100808354040283529160200191611e49565b820191906000526020600020905b815481529060010190602001808311611e2c57829003601f168201915b50505050508152602001600182015481525050815250600760008373ffffffffffffffffffffffffffffffffffffffff1673ffffffffffffffffffffffffffffffffffffffff16815260200190815260200160002060008201518160000160006101000a81548173ffffffffffffffffffffffffffffffffffffffff021916908373ffffffffffffffffffffffffffffffffffffffff1602179055506020820151816001019080519060200190611f0192919061235a565b506040820151816002016000820151816000019080519060200190611f2792919061235a565b506020820151816001015550509050506009600081548092919060010191905055505050565b6000339050611f5b8161181e565b611fcd576040517f08c379a000000000000000000000000000000000000000000000000000000000815260040180806020018281038252600e8152602001807f4552525f5553455f564f54455f3100000000000000000000000000000000000081525060200191505060405180910390fd5b6000600e600085815260200190815260200160002060000154141561205a576040517f08c379a000000000000000000000000000000000000000000000000000000000815260040180806020018281038252600e8152602001807f4552525f5553455f564f54455f3200000000000000000000000000000000000081525060200191505060405180910390fd5b6000600190505b600f54811161216e578173ffffffffffffffffffffffffffffffffffffffff166010600083815260200190815260200160002060000160009054906101000a900473ffffffffffffffffffffffffffffffffffffffff1673ffffffffffffffffffffffffffffffffffffffff161415612161578360106000838152602001908152602001600020600101541415612160576040517f08c379a000000000000000000000000000000000000000000000000000000000815260040180806020018281038252600e8152602001807f4552525f5553455f564f54455f3300000000000000000000000000000000000081525060200191505060405180910390fd5b5b8080600101915050612061565b506000600e60008581526020019081526020016000206005015414156121fc576040517f08c379a000000000000000000000000000000000000000000000000000000000815260040180806020018281038252600e8152602001807f4552525f5553455f564f54455f3400000000000000000000000000000000000081525060200191505060405180910390fd5b42600e60008581526020019081526020016000206004015411612287576040517f08c379a000000000000000000000000000000000000000000000000000000000815260040180806020018281038252600e8152602001807f4552525f5553455f564f54455f3500000000000000000000000000000000000081525060200191505060405180910390fd5b600f6000815480929190600101919050555060405180606001604052808273ffffffffffffffffffffffffffffffffffffffff16815260200184815260200183151581525060106000600f54815260200190815260200160002060008201518160000160006101000a81548173ffffffffffffffffffffffffffffffffffffffff021916908373ffffffffffffffffffffffffffffffffffffffff1602179055506020820151816001015560408201518160020160006101000a81548160ff021916908315150217905550905050505050565b828054600181600116156101000203166002900490600052602060002090601f016020900481019282601f1061239b57805160ff19168380011785556123c9565b828001600101855582156123c9579182015b828111156123c85782518255916020019190600101906123ad565b5b5090506123d691906124e1565b5090565b828054600181600116156101000203166002900490600052602060002090601f016020900481019282601f1061241b57805160ff1916838001178555612449565b82800160010185558215612449579182015b8281111561244857825182559160200191906001019061242d565b5b50905061245691906124e1565b5090565b828054600181600116156101000203166002900490600052602060002090601f016020900481019282601f1061249357805485556124d0565b828001600101855582156124d057600052602060002091601f016020900482015b828111156124cf5782548255916001019190600101906124b4565b5b5090506124dd91906124e1565b5090565b61250391905b808211156124ff5760008160009055506001016124e7565b5090565b9056fea265627a7a7231582055458dbb99953b35b583a54125367327788d8474fc82f6c5e4eee1bb9add799764736f6c63430005100032",
  "source": "pragma solidity >=0.4.22 <0.9.0;\r\n\r\n\r\ncontract Users {\r\n\r\n    struct Role {\r\n        string name;\r\n        uint level;\r\n    }\r\n\r\n    struct User {\r\n        address addr;\r\n        string name;\r\n        Role role;\r\n    }\r\n\r\n    address owner;\r\n\r\n    uint adminLevel = 10;\r\n    uint userLevel = 1;\r\n\r\n    Role adminRole = Role(\"Admin\", adminLevel);\r\n    Role userRole = Role(\"User\", userLevel);\r\n\r\n    mapping(address => User) users;\r\n    mapping(uint => address) addresses;\r\n    uint userCount = 0;\r\n\r\n    constructor() public {\r\n        owner = msg.sender;\r\n        addresses[userCount] = owner;\r\n        users[owner] = User(owner, \"Bayram ALACAM\", adminRole);\r\n        userCount++;\r\n    }\r\n\r\n    // Kullanc kaytl m?\r\n    function isRegistered(address _addr) public view returns(bool) {\r\n        return users[_addr].addr != address(0);\r\n    }\r\n\r\n    // Kayt ol\r\n    function register(string memory _name) public {\r\n        address _addr = msg.sender;\r\n        require(!isRegistered(_addr), \"ERR_IS_REGISTERED\");\r\n        addresses[userCount] = _addr;\r\n        users[_addr] = User(_addr, _name, userRole);\r\n        userCount++;\r\n    }\r\n    \r\n    // sim bilgisini gncelle\r\n    function setName(string memory _name) public {\r\n        address _addr = msg.sender;\r\n        require(isRegistered(_addr), \"ERR_SET_NAME_1\");\r\n        users[_addr].name = _name;\r\n    }\r\n    \r\n    // Kullanc bilgisini getir\r\n    function getUser(address _addr) public view returns(string memory name, uint roleLevel) {\r\n        require(isRegistered(_addr), \"ERR_GET_MY_PROFILE\");\r\n        return (users[_addr].name, users[_addr].role.level);\r\n    }\r\n    \r\n    // Kullanc yetkisini deitir\r\n    function setUserRole(address _addr, uint _roleLevel) public onlyAdminRole {\r\n        // Sistem sahibi kendi yetkisini deitiremez\r\n        require(_addr != owner, \"ERR_SET_USER_ROLE_1\");\r\n        // Admin ve User dndaki yetkileri kabul etme\r\n        require(_roleLevel == userLevel || _roleLevel == adminLevel, \"ERR_SET_USER_ROLE_2\");\r\n        if (_roleLevel == 10) users[_addr].role = adminRole;\r\n        else users[_addr].role = userRole;\r\n    }\r\n    \r\n    // Tm kullanclar\r\n    function getUsers() public view returns(address[] memory) {\r\n        address[] memory _addresses = new address[](userCount);\r\n        for (uint i = 0; i < userCount; i++) {\r\n            _addresses[i] = addresses[i];\r\n        }\r\n        return _addresses;\r\n    }\r\n    \r\n    // Sadece Admin yetkisi olan ilem yapabilsin\r\n    modifier onlyAdminRole(){\r\n        require(users[msg.sender].role.level == adminLevel, \"ERR_ONLY_ADMIN_ROLE\");\r\n        _;\r\n    }\r\n}\r\n\r\ncontract Votes is Users {\r\n    \r\n    uint public voteCount = 0;\r\n    \r\n    struct Vote {\r\n        uint id;\r\n        string subject;\r\n        string detail;\r\n        uint startDate;\r\n        uint endDate;\r\n        uint status;\r\n    }\r\n    \r\n    uint closedStatus = 0;\r\n    uint openStatus = 1;\r\n    uint freezeStatus = 2;\r\n    \r\n    mapping(uint => Vote) public votes;\r\n\r\n    \r\n    struct userVote {\r\n        address addr;\r\n        uint voteId;\r\n        bool vote;\r\n    }\r\n    \r\n    uint usedVoteCount = 0;\r\n    mapping(uint => userVote) public usedVotes;\r\n    \r\n    // Oy kullan\r\n    function useVote(uint _id, bool _vote) public {\r\n        address _addr = msg.sender;\r\n        // Kaytl deilse oy kullanamaz\r\n        require(isRegistered(_addr), \"ERR_USE_VOTE_1\");\r\n        // Bulunmayan oylama kullanlamaz\r\n        require(votes[_id].id != 0, \"ERR_USE_VOTE_2\");\r\n        // Daha nce oy kullanldysa kullanlamaz\r\n        for (uint i = 1; i <= usedVoteCount; i++) {\r\n            if (address(usedVotes[i].addr) == address(_addr)) {\r\n                require(usedVotes[i].voteId != _id, \"ERR_USE_VOTE_3\");\r\n            }\r\n        }\r\n        // Oylama zaten kapalysa kullanlamaz\r\n        require(votes[_id].status != 0, \"ERR_USE_VOTE_4\");\r\n        // Biti tarihini getiyse kullanlamaz\r\n        require(votes[_id].endDate > block.timestamp, \"ERR_USE_VOTE_5\");\r\n        usedVoteCount++;\r\n        usedVotes[usedVoteCount] = userVote(_addr, _id, _vote);\r\n    }\r\n    \r\n    // Kullancnn kulland oylar\r\n    function usedVoteList(address _addr) public view returns(uint[] memory) {\r\n        uint count = 0;\r\n        uint index = 0;\r\n        for (uint i = 1; i <= usedVoteCount; i++) {\r\n            if (address(usedVotes[i].addr) == address(_addr)) {\r\n                count++;\r\n            }\r\n        }\r\n        uint[] memory ids = new uint[](count);\r\n        for (uint i = 1; i <= usedVoteCount; i++) {\r\n            if (address(usedVotes[i].addr) == address(_addr)) {\r\n                ids[index] = i;\r\n                index++;\r\n            }\r\n        }\r\n        return ids;\r\n    }\r\n    \r\n    // Kullanlan oy bilgisi\r\n    function usedVote(uint _id) public view returns(bool) {\r\n        // Byle bir kullanlan oy yoksa hata dndr\r\n        require(usedVotes[_id].addr != address(0), \"ERR_USED_VOTE\");\r\n        return usedVotes[_id].vote;\r\n    }\r\n\r\n    // Oylama olutur\r\n    function createVote(string memory _subject, string memory _detail, uint _endDate) public onlyAdminRole  {\r\n        uint _startDate = block.timestamp;\r\n        require(_endDate >= _startDate, \"ERR_CREATE_VOTE\");\r\n        voteCount++;\r\n        votes[voteCount] = Vote(voteCount, _subject, _detail, _startDate, _endDate, openStatus);\r\n    }\r\n    \r\n    // Bir oyun bilgisini getir\r\n    function getVote(uint _id) public view returns(uint id, string memory subject, string memory detail, uint startDate, uint endDate, uint status) {\r\n        require(votes[_id].id != 0, \"ERR_GET_VOTE\");\r\n        return (votes[_id].id, votes[_id].subject, votes[_id].detail, votes[_id].startDate, votes[_id].endDate, votes[_id].status);\r\n    }\r\n    \r\n    // Oylama durumunu deitir\r\n    function setVoteStatus(uint _id, uint _status) public onlyAdminRole {\r\n        // Farkl durum kodu gnderilemez\r\n        require(_status >= 0 && _status <= 2, \"ERR_SET_VOTE_STATUS_1\");\r\n        // Bulunamayan Oylama Deitirilemez\r\n        require(votes[_id].id != 0, \"ERR_SET_VOTE_STATUS_2\");\r\n        // Oylama zaten kapalysa deitirilemez\r\n        require(votes[_id].status != 0, \"ERR_SET_VOTE_STATUS_3\");\r\n        // Biti tarihini getiyse deitirilemez\r\n        require(votes[_id].endDate > block.timestamp, \"ERR_SET_VOTE_STATUS_4\");\r\n        votes[_id].status = _status;\r\n    }\r\n    \r\n}\r\n\r\ncontract VotingApp is Users, Votes {}",
  "sourcePath": "C:/Users/bayra/Documents/projects/My/ethereum/vote-app-frontend/dapp/contracts/VotingApp.sol",
  "compiler": {
    "name": "solc",
    "version": "0.5.16+commit.9c3226ce.Emscripten.clang"
  },
  "schemaVersion": "3.3.3",
  "updatedAt": "2021-02-11T13:40:08.449Z",
  "devdoc": {
    "methods": {}
  },
  "userdoc": {
    "methods": {}
  }
}