{
  "contractName": "VotingApp",
  "abi": [
    {
      "constant": false,
      "inputs": [
        {
          "internalType": "string",
          "name": "_subject",
          "type": "string"
        },
        {
          "internalType": "string",
          "name": "_detail",
          "type": "string"
        },
        {
          "internalType": "uint256",
          "name": "_endDate",
          "type": "uint256"
        }
      ],
      "name": "createVote",
      "outputs": [],
      "payable": false,
      "stateMutability": "nonpayable",
      "type": "function"
    },
    {
      "constant": true,
      "inputs": [],
      "name": "getAdminAndUserCount",
      "outputs": [
        {
          "internalType": "uint256[]",
          "name": "",
          "type": "uint256[]"
        }
      ],
      "payable": false,
      "stateMutability": "view",
      "type": "function"
    },
    {
      "constant": true,
      "inputs": [
        {
          "internalType": "address",
          "name": "_addr",
          "type": "address"
        }
      ],
      "name": "getUser",
      "outputs": [
        {
          "internalType": "string",
          "name": "name",
          "type": "string"
        },
        {
          "internalType": "uint256",
          "name": "roleLevel",
          "type": "uint256"
        }
      ],
      "payable": false,
      "stateMutability": "view",
      "type": "function"
    },
    {
      "constant": true,
      "inputs": [],
      "name": "getUsers",
      "outputs": [
        {
          "internalType": "address[]",
          "name": "",
          "type": "address[]"
        }
      ],
      "payable": false,
      "stateMutability": "view",
      "type": "function"
    },
    {
      "constant": true,
      "inputs": [
        {
          "internalType": "uint256",
          "name": "_id",
          "type": "uint256"
        }
      ],
      "name": "getVote",
      "outputs": [
        {
          "internalType": "uint256",
          "name": "id",
          "type": "uint256"
        },
        {
          "internalType": "string",
          "name": "subject",
          "type": "string"
        },
        {
          "internalType": "string",
          "name": "detail",
          "type": "string"
        },
        {
          "internalType": "uint256",
          "name": "startDate",
          "type": "uint256"
        },
        {
          "internalType": "uint256",
          "name": "endDate",
          "type": "uint256"
        },
        {
          "internalType": "uint256",
          "name": "status",
          "type": "uint256"
        }
      ],
      "payable": false,
      "stateMutability": "view",
      "type": "function"
    },
    {
      "constant": true,
      "inputs": [
        {
          "internalType": "address",
          "name": "_addr",
          "type": "address"
        }
      ],
      "name": "isRegistered",
      "outputs": [
        {
          "internalType": "bool",
          "name": "",
          "type": "bool"
        }
      ],
      "payable": false,
      "stateMutability": "view",
      "type": "function"
    },
    {
      "constant": false,
      "inputs": [
        {
          "internalType": "string",
          "name": "_name",
          "type": "string"
        }
      ],
      "name": "register",
      "outputs": [],
      "payable": false,
      "stateMutability": "nonpayable",
      "type": "function"
    },
    {
      "constant": false,
      "inputs": [
        {
          "internalType": "string",
          "name": "_name",
          "type": "string"
        }
      ],
      "name": "setName",
      "outputs": [],
      "payable": false,
      "stateMutability": "nonpayable",
      "type": "function"
    },
    {
      "constant": false,
      "inputs": [
        {
          "internalType": "address",
          "name": "_addr",
          "type": "address"
        },
        {
          "internalType": "uint256",
          "name": "_roleLevel",
          "type": "uint256"
        }
      ],
      "name": "setUserRole",
      "outputs": [],
      "payable": false,
      "stateMutability": "nonpayable",
      "type": "function"
    },
    {
      "constant": false,
      "inputs": [
        {
          "internalType": "uint256",
          "name": "_id",
          "type": "uint256"
        },
        {
          "internalType": "uint256",
          "name": "_status",
          "type": "uint256"
        }
      ],
      "name": "setVoteStatus",
      "outputs": [],
      "payable": false,
      "stateMutability": "nonpayable",
      "type": "function"
    },
    {
      "constant": false,
      "inputs": [
        {
          "internalType": "uint256",
          "name": "_id",
          "type": "uint256"
        },
        {
          "internalType": "bool",
          "name": "_vote",
          "type": "bool"
        }
      ],
      "name": "useVote",
      "outputs": [],
      "payable": false,
      "stateMutability": "nonpayable",
      "type": "function"
    },
    {
      "constant": true,
      "inputs": [
        {
          "internalType": "uint256",
          "name": "_id",
          "type": "uint256"
        }
      ],
      "name": "usedVote",
      "outputs": [
        {
          "internalType": "uint256",
          "name": "id",
          "type": "uint256"
        },
        {
          "internalType": "bool",
          "name": "vote",
          "type": "bool"
        }
      ],
      "payable": false,
      "stateMutability": "view",
      "type": "function"
    },
    {
      "constant": true,
      "inputs": [
        {
          "internalType": "address",
          "name": "_addr",
          "type": "address"
        }
      ],
      "name": "usedVoteList",
      "outputs": [
        {
          "internalType": "uint256[]",
          "name": "",
          "type": "uint256[]"
        }
      ],
      "payable": false,
      "stateMutability": "view",
      "type": "function"
    },
    {
      "constant": true,
      "inputs": [
        {
          "internalType": "uint256",
          "name": "_id",
          "type": "uint256"
        }
      ],
      "name": "usedVoteNo",
      "outputs": [
        {
          "internalType": "uint256",
          "name": "_count",
          "type": "uint256"
        }
      ],
      "payable": false,
      "stateMutability": "view",
      "type": "function"
    },
    {
      "constant": true,
      "inputs": [
        {
          "internalType": "uint256",
          "name": "_id",
          "type": "uint256"
        }
      ],
      "name": "usedVoteYes",
      "outputs": [
        {
          "internalType": "uint256",
          "name": "_count",
          "type": "uint256"
        }
      ],
      "payable": false,
      "stateMutability": "view",
      "type": "function"
    },
    {
      "constant": true,
      "inputs": [
        {
          "internalType": "uint256",
          "name": "",
          "type": "uint256"
        }
      ],
      "name": "usedVotes",
      "outputs": [
        {
          "internalType": "address",
          "name": "addr",
          "type": "address"
        },
        {
          "internalType": "uint256",
          "name": "voteId",
          "type": "uint256"
        },
        {
          "internalType": "bool",
          "name": "vote",
          "type": "bool"
        }
      ],
      "payable": false,
      "stateMutability": "view",
      "type": "function"
    },
    {
      "constant": true,
      "inputs": [
        {
          "internalType": "address",
          "name": "_addr",
          "type": "address"
        }
      ],
      "name": "userUnusedVoteCount",
      "outputs": [
        {
          "internalType": "uint256",
          "name": "count",
          "type": "uint256"
        }
      ],
      "payable": false,
      "stateMutability": "view",
      "type": "function"
    },
    {
      "constant": true,
      "inputs": [
        {
          "internalType": "address",
          "name": "_addr",
          "type": "address"
        }
      ],
      "name": "userUsedVoteCount",
      "outputs": [
        {
          "internalType": "uint256",
          "name": "count",
          "type": "uint256"
        }
      ],
      "payable": false,
      "stateMutability": "view",
      "type": "function"
    },
    {
      "constant": true,
      "inputs": [],
      "name": "voteCount",
      "outputs": [
        {
          "internalType": "uint256",
          "name": "",
          "type": "uint256"
        }
      ],
      "payable": false,
      "stateMutability": "view",
      "type": "function"
    },
    {
      "constant": true,
      "inputs": [
        {
          "internalType": "uint256",
          "name": "",
          "type": "uint256"
        }
      ],
      "name": "votes",
      "outputs": [
        {
          "internalType": "uint256",
          "name": "id",
          "type": "uint256"
        },
        {
          "internalType": "string",
          "name": "subject",
          "type": "string"
        },
        {
          "internalType": "string",
          "name": "detail",
          "type": "string"
        },
        {
          "internalType": "uint256",
          "name": "startDate",
          "type": "uint256"
        },
        {
          "internalType": "uint256",
          "name": "endDate",
          "type": "uint256"
        },
        {
          "internalType": "uint256",
          "name": "status",
          "type": "uint256"
        }
      ],
      "payable": false,
      "stateMutability": "view",
      "type": "function"
    }
  ],
  "bytecode": "0x6080604052600a600155600160025560405180604001604052806040518060400160405280600581526020017f41646d696e0000000000000000000000000000000000000000000000000000008152508152602001600154815250600360008201518160000190805190602001906200007a9291906200042b565b5060208201518160010155505060405180604001604052806040518060400160405280600481526020017f5573657200000000000000000000000000000000000000000000000000000000815250815260200160025481525060056000820151816000019080519060200190620000f39291906200042b565b5060208201518160010155505060006009556000600a556000600b556001600c556002600d556000600f55336000806101000a81548173ffffffffffffffffffffffffffffffffffffffff021916908373ffffffffffffffffffffffffffffffffffffffff1602179055506000809054906101000a900473ffffffffffffffffffffffffffffffffffffffff1660086000600954815260200190815260200160002060006101000a81548173ffffffffffffffffffffffffffffffffffffffff021916908373ffffffffffffffffffffffffffffffffffffffff16021790555060405180606001604052806000809054906101000a900473ffffffffffffffffffffffffffffffffffffffff1673ffffffffffffffffffffffffffffffffffffffff1681526020016040518060400160405280600d81526020017f42617972616d20414c4143414d0000000000000000000000000000000000000081525081526020016003604051806040016040529081600082018054600181600116156101000203166002900480601f016020809104026020016040519081016040528092919081815260200182805460018160011615610100020316600290048015620003005780601f10620002d45761010080835404028352916020019162000300565b820191906000526020600020905b815481529060010190602001808311620002e257829003601f168201915b50505050508152602001600182015481525050815250600760008060009054906101000a900473ffffffffffffffffffffffffffffffffffffffff1673ffffffffffffffffffffffffffffffffffffffff1673ffffffffffffffffffffffffffffffffffffffff16815260200190815260200160002060008201518160000160006101000a81548173ffffffffffffffffffffffffffffffffffffffff021916908373ffffffffffffffffffffffffffffffffffffffff1602179055506020820151816001019080519060200190620003db9291906200042b565b506040820151816002016000820151816000019080519060200190620004039291906200042b565b50602082015181600101555050905050600960008154809291906001019190505550620004da565b828054600181600116156101000203166002900490600052602060002090601f016020900481019282601f106200046e57805160ff19168380011785556200049f565b828001600101855582156200049f579182015b828111156200049e57825182559160200191906001019062000481565b5b509050620004ae9190620004b2565b5090565b620004d791905b80821115620004d3576000816000905550600101620004b9565b5090565b90565b612bed80620004ea6000396000f3fe608060405234801561001057600080fd5b506004361061012a5760003560e01c8063937cabed116100ad578063c638407111610071578063c6384071146109f5578063c844403114610a13578063e480e68514610a61578063f2c298be14610ac0578063fe57615014610b7b5761012a565b8063937cabed146106f3578063a5b646771461084f578063b2c9f43314610891578063c3c5a547146108de578063c47f00271461093a5761012a565b80635a55c1f0116100f45780635a55c1f0146102f65780635df81330146104255780636f77926b1461055457806376be038f1461061857806389014e5d1461065a5761012a565b8062ce8e3e1461012f578062efba841461018e57806309964357146101e6578063356a1bb6146102665780635a3940881461029e575b600080fd5b610137610bb5565b6040518080602001828103825283818151815260200191508051906020019060200280838360005b8381101561017a57808201518184015260208101905061015f565b505050509050019250505060405180910390f35b6101d0600480360360208110156101a457600080fd5b81019080803573ffffffffffffffffffffffffffffffffffffffff169060200190929190505050610c8b565b6040518082815260200191505060405180910390f35b610212600480360360208110156101fc57600080fd5b8101908080359060200190929190505050610d30565b604051808473ffffffffffffffffffffffffffffffffffffffff1673ffffffffffffffffffffffffffffffffffffffff16815260200183815260200182151515158152602001935050505060405180910390f35b61029c6004803603604081101561027c57600080fd5b810190808035906020019092919080359060200190929190505050610d87565b005b6102e0600480360360208110156102b457600080fd5b81019080803573ffffffffffffffffffffffffffffffffffffffff16906020019092919050505061108b565b6040518082815260200191505060405180910390f35b6103226004803603602081101561030c57600080fd5b810190808035906020019092919050505061112c565b604051808781526020018060200180602001868152602001858152602001848152602001838103835288818151815260200191508051906020019080838360005b8381101561037e578082015181840152602081019050610363565b50505050905090810190601f1680156103ab5780820380516001836020036101000a031916815260200191505b50838103825287818151815260200191508051906020019080838360005b838110156103e45780820151818401526020810190506103c9565b50505050905090810190601f1680156104115780820380516001836020036101000a031916815260200191505b509850505050505050505060405180910390f35b6104516004803603602081101561043b57600080fd5b8101908080359060200190929190505050611397565b604051808781526020018060200180602001868152602001858152602001848152602001838103835288818151815260200191508051906020019080838360005b838110156104ad578082015181840152602081019050610492565b50505050905090810190601f1680156104da5780820380516001836020036101000a031916815260200191505b50838103825287818151815260200191508051906020019080838360005b838110156105135780820151818401526020810190506104f8565b50505050905090810190601f1680156105405780820380516001836020036101000a031916815260200191505b509850505050505050505060405180910390f35b6105966004803603602081101561056a57600080fd5b81019080803573ffffffffffffffffffffffffffffffffffffffff169060200190929190505050611503565b6040518080602001838152602001828103825284818151815260200191508051906020019080838360005b838110156105dc5780820151818401526020810190506105c1565b50505050905090810190601f1680156106095780820380516001836020036101000a031916815260200191505b50935050505060405180910390f35b6106446004803603602081101561062e57600080fd5b81019080803590602001909291905050506116af565b6040518082815260200191505060405180910390f35b61069c6004803603602081101561067057600080fd5b81019080803573ffffffffffffffffffffffffffffffffffffffff1690602001909291905050506117c3565b6040518080602001828103825283818151815260200191508051906020019060200280838360005b838110156106df5780820151818401526020810190506106c4565b505050509050019250505060405180910390f35b61084d6004803603606081101561070957600080fd5b810190808035906020019064010000000081111561072657600080fd5b82018360208201111561073857600080fd5b8035906020019184600183028401116401000000008311171561075a57600080fd5b91908080601f016020809104026020016040519081016040528093929190818152602001838380828437600081840152601f19601f820116905080830192505050505050509192919290803590602001906401000000008111156107bd57600080fd5b8201836020820111156107cf57600080fd5b803590602001918460018302840111640100000000831117156107f157600080fd5b91908080601f016020809104026020016040519081016040528093929190818152602001838380828437600081840152601f19601f82011690508083019250505050505050919291929080359060200190929190505050611949565b005b61087b6004803603602081101561086557600080fd5b8101908080359060200190929190505050611b43565b6040518082815260200191505060405180910390f35b6108bd600480360360208110156108a757600080fd5b8101908080359060200190929190505050611c57565b60405180838152602001821515151581526020019250505060405180910390f35b610920600480360360208110156108f457600080fd5b81019080803573ffffffffffffffffffffffffffffffffffffffff169060200190929190505050611d77565b604051808215151515815260200191505060405180910390f35b6109f36004803603602081101561095057600080fd5b810190808035906020019064010000000081111561096d57600080fd5b82018360208201111561097f57600080fd5b803590602001918460018302840111640100000000831117156109a157600080fd5b91908080601f016020809104026020016040519081016040528093929190818152602001838380828437600081840152601f19601f820116905080830192505050505050509192919290505050611e12565b005b6109fd611eed565b6040518082815260200191505060405180910390f35b610a5f60048036036040811015610a2957600080fd5b81019080803573ffffffffffffffffffffffffffffffffffffffff16906020019092919080359060200190929190505050611ef3565b005b610a696121fa565b6040518080602001828103825283818151815260200191508051906020019060200280838360005b83811015610aac578082015181840152602081019050610a91565b505050509050019250505060405180910390f35b610b7960048036036020811015610ad657600080fd5b8101908080359060200190640100000000811115610af357600080fd5b820183602082011115610b0557600080fd5b80359060200191846001830284011164010000000083111715610b2757600080fd5b91908080601f016020809104026020016040519081016040528093929190818152602001838380828437600081840152601f19601f820116905080830192505050505050509192919290505050612353565b005b610bb360048036036040811015610b9157600080fd5b81019080803590602001909291908035151590602001909291905050506125ff565b005b606080600954604051908082528060200260200182016040528015610be95781602001602082028038833980820191505090505b50905060008090505b600954811015610c83576008600082815260200190815260200160002060009054906101000a900473ffffffffffffffffffffffffffffffffffffffff16828281518110610c3c57fe5b602002602001019073ffffffffffffffffffffffffffffffffffffffff16908173ffffffffffffffffffffffffffffffffffffffff16815250508080600101915050610bf2565b508091505090565b600080600090506000600190505b600f548111610d22578373ffffffffffffffffffffffffffffffffffffffff166010600083815260200190815260200160002060000160009054906101000a900473ffffffffffffffffffffffffffffffffffffffff1673ffffffffffffffffffffffffffffffffffffffff161415610d155781806001019250505b8080600101915050610c99565b5080600a5403915050919050565b60106020528060005260406000206000915090508060000160009054906101000a900473ffffffffffffffffffffffffffffffffffffffff16908060010154908060020160009054906101000a900460ff16905083565b600154600760003373ffffffffffffffffffffffffffffffffffffffff1673ffffffffffffffffffffffffffffffffffffffff1681526020019081526020016000206002016001015414610e43576040517f08c379a00000000000000000000000000000000000000000000000000000000081526004018080602001828103825260138152602001807f4552525f4f4e4c595f41444d494e5f524f4c450000000000000000000000000081525060200191505060405180910390fd5b60008110158015610e55575060028111155b610ec7576040517f08c379a00000000000000000000000000000000000000000000000000000000081526004018080602001828103825260158152602001807f4552525f5345545f564f54455f5354415455535f31000000000000000000000081525060200191505060405180910390fd5b6000600e6000848152602001908152602001600020600001541415610f54576040517f08c379a00000000000000000000000000000000000000000000000000000000081526004018080602001828103825260158152602001807f4552525f5345545f564f54455f5354415455535f32000000000000000000000081525060200191505060405180910390fd5b6000600e6000848152602001908152602001600020600501541415610fe1576040517f08c379a00000000000000000000000000000000000000000000000000000000081526004018080602001828103825260158152602001807f4552525f5345545f564f54455f5354415455535f33000000000000000000000081525060200191505060405180910390fd5b42600e6000848152602001908152602001600020600401541161106c576040517f08c379a00000000000000000000000000000000000000000000000000000000081526004018080602001828103825260158152602001807f4552525f5345545f564f54455f5354415455535f34000000000000000000000081525060200191505060405180910390fd5b80600e6000848152602001908152602001600020600501819055505050565b600080600090506000600190505b600f548111611122578373ffffffffffffffffffffffffffffffffffffffff166010600083815260200190815260200160002060000160009054906101000a900473ffffffffffffffffffffffffffffffffffffffff1673ffffffffffffffffffffffffffffffffffffffff1614156111155781806001019250505b8080600101915050611099565b5080915050919050565b6000606080600080600080600e60008981526020019081526020016000206000015414156111c2576040517f08c379a000000000000000000000000000000000000000000000000000000000815260040180806020018281038252600c8152602001807f4552525f4745545f564f5445000000000000000000000000000000000000000081525060200191505060405180910390fd5b600e600088815260200190815260200160002060000154600e6000898152602001908152602001600020600101600e60008a8152602001908152602001600020600201600e60008b815260200190815260200160002060030154600e60008c815260200190815260200160002060040154600e60008d815260200190815260200160002060050154848054600181600116156101000203166002900480601f0160208091040260200160405190810160405280929190818152602001828054600181600116156101000203166002900480156112df5780601f106112b4576101008083540402835291602001916112df565b820191906000526020600020905b8154815290600101906020018083116112c257829003601f168201915b50505050509450838054600181600116156101000203166002900480601f01602080910402602001604051908101604052809291908181526020018280546001816001161561010002031660029004801561137b5780601f106113505761010080835404028352916020019161137b565b820191906000526020600020905b81548152906001019060200180831161135e57829003601f168201915b5050505050935095509550955095509550955091939550919395565b600e602052806000526040600020600091509050806000015490806001018054600181600116156101000203166002900480601f0160208091040260200160405190810160405280929190818152602001828054600181600116156101000203166002900480156114495780601f1061141e57610100808354040283529160200191611449565b820191906000526020600020905b81548152906001019060200180831161142c57829003601f168201915b505050505090806002018054600181600116156101000203166002900480601f0160208091040260200160405190810160405280929190818152602001828054600181600116156101000203166002900480156114e75780601f106114bc576101008083540402835291602001916114e7565b820191906000526020600020905b8154815290600101906020018083116114ca57829003601f168201915b5050505050908060030154908060040154908060050154905086565b6060600061151083611d77565b611582576040517f08c379a00000000000000000000000000000000000000000000000000000000081526004018080602001828103825260128152602001807f4552525f4745545f4d595f50524f46494c45000000000000000000000000000081525060200191505060405180910390fd5b600760008473ffffffffffffffffffffffffffffffffffffffff1673ffffffffffffffffffffffffffffffffffffffff168152602001908152602001600020600101600760008573ffffffffffffffffffffffffffffffffffffffff1673ffffffffffffffffffffffffffffffffffffffff16815260200190815260200160002060020160010154818054600181600116156101000203166002900480601f01602080910402602001604051908101604052809291908181526020018280546001816001161561010002031660029004801561169f5780601f106116745761010080835404028352916020019161169f565b820191906000526020600020905b81548152906001019060200180831161168257829003601f168201915b5050505050915091509150915091565b600080600e600084815260200190815260200160002060000154141561173d576040517f08c379a00000000000000000000000000000000000000000000000000000000081526004018080602001828103825260118152602001807f4552525f555345445f564f5445535f4e4f00000000000000000000000000000081525060200191505060405180910390fd5b60008090506000600190505b600f5481116117b95783601060008381526020019081526020016000206001015414801561179e5750600015156010600083815260200190815260200160002060020160009054906101000a900460ff161515145b156117ac5781806001019250505b8080600101915050611749565b5080915050919050565b6060600080905060008090506000600190505b600f54811161185f578473ffffffffffffffffffffffffffffffffffffffff166010600083815260200190815260200160002060000160009054906101000a900473ffffffffffffffffffffffffffffffffffffffff1673ffffffffffffffffffffffffffffffffffffffff1614156118525782806001019350505b80806001019150506117d6565b506060826040519080825280602002602001820160405280156118915781602001602082028038833980820191505090505b5090506000600190505b600f54811161193d578573ffffffffffffffffffffffffffffffffffffffff166010600083815260200190815260200160002060000160009054906101000a900473ffffffffffffffffffffffffffffffffffffffff1673ffffffffffffffffffffffffffffffffffffffff161415611930578082848151811061191b57fe5b60200260200101818152505082806001019350505b808060010191505061189b565b50809350505050919050565b600154600760003373ffffffffffffffffffffffffffffffffffffffff1673ffffffffffffffffffffffffffffffffffffffff1681526020019081526020016000206002016001015414611a05576040517f08c379a00000000000000000000000000000000000000000000000000000000081526004018080602001828103825260138152602001807f4552525f4f4e4c595f41444d494e5f524f4c450000000000000000000000000081525060200191505060405180910390fd5b600042905080821015611a80576040517f08c379a000000000000000000000000000000000000000000000000000000000815260040180806020018281038252600f8152602001807f4552525f4352454154455f564f5445000000000000000000000000000000000081525060200191505060405180910390fd5b600a600081548092919060010191905055506040518060c00160405280600a548152602001858152602001848152602001828152602001838152602001600c54815250600e6000600a548152602001908152602001600020600082015181600001556020820151816001019080519060200190611afe929190612a0c565b506040820151816002019080519060200190611b1b929190612a0c565b50606082015181600301556080820151816004015560a0820151816005015590505050505050565b600080600e6000848152602001908152602001600020600001541415611bd1576040517f08c379a00000000000000000000000000000000000000000000000000000000081526004018080602001828103825260128152602001807f4552525f555345445f564f5445535f594553000000000000000000000000000081525060200191505060405180910390fd5b60008090506000600190505b600f548111611c4d57836010600083815260200190815260200160002060010154148015611c325750600115156010600083815260200190815260200160002060020160009054906101000a900460ff161515145b15611c405781806001019250505b8080600101915050611bdd565b5080915050919050565b600080600073ffffffffffffffffffffffffffffffffffffffff166010600085815260200190815260200160002060000160009054906101000a900473ffffffffffffffffffffffffffffffffffffffff1673ffffffffffffffffffffffffffffffffffffffff161415611d33576040517f08c379a000000000000000000000000000000000000000000000000000000000815260040180806020018281038252600d8152602001807f4552525f555345445f564f54450000000000000000000000000000000000000081525060200191505060405180910390fd5b60106000848152602001908152602001600020600101546010600085815260200190815260200160002060020160009054906101000a900460ff1691509150915091565b60008073ffffffffffffffffffffffffffffffffffffffff16600760008473ffffffffffffffffffffffffffffffffffffffff1673ffffffffffffffffffffffffffffffffffffffff16815260200190815260200160002060000160009054906101000a900473ffffffffffffffffffffffffffffffffffffffff1673ffffffffffffffffffffffffffffffffffffffff1614159050919050565b6000339050611e2081611d77565b611e92576040517f08c379a000000000000000000000000000000000000000000000000000000000815260040180806020018281038252600e8152602001807f4552525f5345545f4e414d455f3100000000000000000000000000000000000081525060200191505060405180910390fd5b81600760008373ffffffffffffffffffffffffffffffffffffffff1673ffffffffffffffffffffffffffffffffffffffff1681526020019081526020016000206001019080519060200190611ee8929190612a8c565b505050565b600a5481565b600154600760003373ffffffffffffffffffffffffffffffffffffffff1673ffffffffffffffffffffffffffffffffffffffff1681526020019081526020016000206002016001015414611faf576040517f08c379a00000000000000000000000000000000000000000000000000000000081526004018080602001828103825260138152602001807f4552525f4f4e4c595f41444d494e5f524f4c450000000000000000000000000081525060200191505060405180910390fd5b6000809054906101000a900473ffffffffffffffffffffffffffffffffffffffff1673ffffffffffffffffffffffffffffffffffffffff168273ffffffffffffffffffffffffffffffffffffffff161415612072576040517f08c379a00000000000000000000000000000000000000000000000000000000081526004018080602001828103825260138152602001807f4552525f5345545f555345525f524f4c455f310000000000000000000000000081525060200191505060405180910390fd5b600254811480612083575060015481145b6120f5576040517f08c379a00000000000000000000000000000000000000000000000000000000081526004018080602001828103825260138152602001807f4552525f5345545f555345525f524f4c455f320000000000000000000000000081525060200191505060405180910390fd5b600a81141561217c576003600760008473ffffffffffffffffffffffffffffffffffffffff1673ffffffffffffffffffffffffffffffffffffffff16815260200190815260200160002060020160008201816000019080546001816001161561010002031660029004612169929190612b0c565b50600182015481600101559050506121f6565b6005600760008473ffffffffffffffffffffffffffffffffffffffff1673ffffffffffffffffffffffffffffffffffffffff168152602001908152602001600020600201600082018160000190805460018160011615610100020316600290046121e7929190612b0c565b50600182015481600101559050505b5050565b606080600260405190808252806020026020018201604052801561222d5781602001602082028038833980820191505090505b50905060008160008151811061223f57fe5b60200260200101818152505060008160018151811061225a57fe5b60200260200101818152505060008090505b60095481101561234b57600154600760006008600085815260200190815260200160002060009054906101000a900473ffffffffffffffffffffffffffffffffffffffff1673ffffffffffffffffffffffffffffffffffffffff1673ffffffffffffffffffffffffffffffffffffffff16815260200190815260200160002060020160010154141561231d578160008151811061230557fe5b6020026020010180518091906001018152505061233e565b8160018151811061232a57fe5b602002602001018051809190600101815250505b808060010191505061226c565b508091505090565b600033905061236181611d77565b156123d4576040517f08c379a00000000000000000000000000000000000000000000000000000000081526004018080602001828103825260118152602001807f4552525f49535f5245474953544552454400000000000000000000000000000081525060200191505060405180910390fd5b8060086000600954815260200190815260200160002060006101000a81548173ffffffffffffffffffffffffffffffffffffffff021916908373ffffffffffffffffffffffffffffffffffffffff16021790555060405180606001604052808273ffffffffffffffffffffffffffffffffffffffff1681526020018381526020016005604051806040016040529081600082018054600181600116156101000203166002900480601f0160208091040260200160405190810160405280929190818152602001828054600181600116156101000203166002900480156124fb5780601f106124d0576101008083540402835291602001916124fb565b820191906000526020600020905b8154815290600101906020018083116124de57829003601f168201915b50505050508152602001600182015481525050815250600760008373ffffffffffffffffffffffffffffffffffffffff1673ffffffffffffffffffffffffffffffffffffffff16815260200190815260200160002060008201518160000160006101000a81548173ffffffffffffffffffffffffffffffffffffffff021916908373ffffffffffffffffffffffffffffffffffffffff16021790555060208201518160010190805190602001906125b3929190612a0c565b5060408201518160020160008201518160000190805190602001906125d9929190612a0c565b506020820151816001015550509050506009600081548092919060010191905055505050565b600033905061260d81611d77565b61267f576040517f08c379a000000000000000000000000000000000000000000000000000000000815260040180806020018281038252600e8152602001807f4552525f5553455f564f54455f3100000000000000000000000000000000000081525060200191505060405180910390fd5b6000600e600085815260200190815260200160002060000154141561270c576040517f08c379a000000000000000000000000000000000000000000000000000000000815260040180806020018281038252600e8152602001807f4552525f5553455f564f54455f3200000000000000000000000000000000000081525060200191505060405180910390fd5b6000600190505b600f548111612820578173ffffffffffffffffffffffffffffffffffffffff166010600083815260200190815260200160002060000160009054906101000a900473ffffffffffffffffffffffffffffffffffffffff1673ffffffffffffffffffffffffffffffffffffffff161415612813578360106000838152602001908152602001600020600101541415612812576040517f08c379a000000000000000000000000000000000000000000000000000000000815260040180806020018281038252600e8152602001807f4552525f5553455f564f54455f3300000000000000000000000000000000000081525060200191505060405180910390fd5b5b8080600101915050612713565b506000600e60008581526020019081526020016000206005015414156128ae576040517f08c379a000000000000000000000000000000000000000000000000000000000815260040180806020018281038252600e8152602001807f4552525f5553455f564f54455f3400000000000000000000000000000000000081525060200191505060405180910390fd5b42600e60008581526020019081526020016000206004015411612939576040517f08c379a000000000000000000000000000000000000000000000000000000000815260040180806020018281038252600e8152602001807f4552525f5553455f564f54455f3500000000000000000000000000000000000081525060200191505060405180910390fd5b600f6000815480929190600101919050555060405180606001604052808273ffffffffffffffffffffffffffffffffffffffff16815260200184815260200183151581525060106000600f54815260200190815260200160002060008201518160000160006101000a81548173ffffffffffffffffffffffffffffffffffffffff021916908373ffffffffffffffffffffffffffffffffffffffff1602179055506020820151816001015560408201518160020160006101000a81548160ff021916908315150217905550905050505050565b828054600181600116156101000203166002900490600052602060002090601f016020900481019282601f10612a4d57805160ff1916838001178555612a7b565b82800160010185558215612a7b579182015b82811115612a7a578251825591602001919060010190612a5f565b5b509050612a889190612b93565b5090565b828054600181600116156101000203166002900490600052602060002090601f016020900481019282601f10612acd57805160ff1916838001178555612afb565b82800160010185558215612afb579182015b82811115612afa578251825591602001919060010190612adf565b5b509050612b089190612b93565b5090565b828054600181600116156101000203166002900490600052602060002090601f016020900481019282601f10612b455780548555612b82565b82800160010185558215612b8257600052602060002091601f016020900482015b82811115612b81578254825591600101919060010190612b66565b5b509050612b8f9190612b93565b5090565b612bb591905b80821115612bb1576000816000905550600101612b99565b5090565b9056fea265627a7a72315820859445f6fcb99265c35020f7ffa2f0a565b65162e1b3c1f130d28fd5ab48e10964736f6c63430005100032",
  "source": "pragma solidity >=0.4.22 <0.9.0;\r\n\r\ncontract Users {\r\n    struct Role {\r\n        string name;\r\n        uint256 level;\r\n    }\r\n\r\n    struct User {\r\n        address addr;\r\n        string name;\r\n        Role role;\r\n    }\r\n\r\n    address owner;\r\n\r\n    uint256 adminLevel = 10;\r\n    uint256 userLevel = 1;\r\n\r\n    Role adminRole = Role(\"Admin\", adminLevel);\r\n    Role userRole = Role(\"User\", userLevel);\r\n\r\n    mapping(address => User) users;\r\n    mapping(uint256 => address) addresses;\r\n    uint256 userCount = 0;\r\n\r\n    constructor() public {\r\n        owner = msg.sender;\r\n        addresses[userCount] = owner;\r\n        users[owner] = User(owner, \"Bayram ALACAM\", adminRole);\r\n        userCount++;\r\n    }\r\n\r\n    // Kullanc kaytl m?\r\n    function isRegistered(address _addr) public view returns (bool) {\r\n        return users[_addr].addr != address(0);\r\n    }\r\n\r\n    // Kayt ol\r\n    function register(string memory _name) public {\r\n        address _addr = msg.sender;\r\n        require(!isRegistered(_addr), \"ERR_IS_REGISTERED\");\r\n        addresses[userCount] = _addr;\r\n        users[_addr] = User(_addr, _name, userRole);\r\n        userCount++;\r\n    }\r\n\r\n    // sim bilgisini gncelle\r\n    function setName(string memory _name) public {\r\n        address _addr = msg.sender;\r\n        require(isRegistered(_addr), \"ERR_SET_NAME_1\");\r\n        users[_addr].name = _name;\r\n    }\r\n\r\n    // Kullanc bilgisini getir\r\n    function getUser(address _addr)\r\n        public\r\n        view\r\n        returns (string memory name, uint256 roleLevel)\r\n    {\r\n        require(isRegistered(_addr), \"ERR_GET_MY_PROFILE\");\r\n        return (users[_addr].name, users[_addr].role.level);\r\n    }\r\n\r\n    // Kullanc yetkisini deitir\r\n    function setUserRole(address _addr, uint256 _roleLevel)\r\n        public\r\n        onlyAdminRole\r\n    {\r\n        // Sistem sahibi kendi yetkisini deitiremez\r\n        require(_addr != owner, \"ERR_SET_USER_ROLE_1\");\r\n        // Admin ve User dndaki yetkileri kabul etme\r\n        require(\r\n            _roleLevel == userLevel || _roleLevel == adminLevel,\r\n            \"ERR_SET_USER_ROLE_2\"\r\n        );\r\n        if (_roleLevel == 10) users[_addr].role = adminRole;\r\n        else users[_addr].role = userRole;\r\n    }\r\n\r\n    // Tm kullanclar\r\n    function getUsers() public view returns (address[] memory) {\r\n        address[] memory _addresses = new address[](userCount);\r\n        for (uint256 i = 0; i < userCount; i++) {\r\n            _addresses[i] = addresses[i];\r\n        }\r\n        return _addresses;\r\n    }\r\n\r\n    // Admin ve User kullanclarnn saysn dndrr\r\n    function getAdminAndUserCount() public view returns (uint256[] memory) {\r\n        uint256[] memory _count = new uint256[](2);\r\n        _count[0] = 0;\r\n        _count[1] = 0;\r\n        for (uint256 i = 0; i < userCount; i++) {\r\n            if (users[addresses[i]].role.level == adminLevel) {\r\n                _count[0]++;\r\n            } else {\r\n                _count[1]++;\r\n            }\r\n        }\r\n        return _count;\r\n    }\r\n\r\n    // Sadece Admin yetkisi olan ilem yapabilsin\r\n    modifier onlyAdminRole() {\r\n        require(\r\n            users[msg.sender].role.level == adminLevel,\r\n            \"ERR_ONLY_ADMIN_ROLE\"\r\n        );\r\n        _;\r\n    }\r\n}\r\n\r\ncontract Votes is Users {\r\n    uint256 public voteCount = 0;\r\n\r\n    struct Vote {\r\n        uint256 id;\r\n        string subject;\r\n        string detail;\r\n        uint256 startDate;\r\n        uint256 endDate;\r\n        uint256 status;\r\n    }\r\n\r\n    uint256 closedStatus = 0;\r\n    uint256 openStatus = 1;\r\n    uint256 freezeStatus = 2;\r\n\r\n    mapping(uint256 => Vote) public votes;\r\n\r\n    struct userVote {\r\n        address addr;\r\n        uint256 voteId;\r\n        bool vote;\r\n    }\r\n\r\n    uint256 usedVoteCount = 0;\r\n    mapping(uint256 => userVote) public usedVotes;\r\n\r\n    // Oy kullan\r\n    function useVote(uint256 _id, bool _vote) public {\r\n        address _addr = msg.sender;\r\n        // Kaytl deilse oy kullanamaz\r\n        require(isRegistered(_addr), \"ERR_USE_VOTE_1\");\r\n        // Bulunmayan oylama kullanlamaz\r\n        require(votes[_id].id != 0, \"ERR_USE_VOTE_2\");\r\n        // Daha nce oy kullanldysa kullanlamaz\r\n        for (uint256 i = 1; i <= usedVoteCount; i++) {\r\n            if (address(usedVotes[i].addr) == address(_addr)) {\r\n                require(usedVotes[i].voteId != _id, \"ERR_USE_VOTE_3\");\r\n            }\r\n        }\r\n        // Oylama zaten kapalysa kullanlamaz\r\n        require(votes[_id].status != 0, \"ERR_USE_VOTE_4\");\r\n        // Biti tarihini getiyse kullanlamaz\r\n        require(votes[_id].endDate > block.timestamp, \"ERR_USE_VOTE_5\");\r\n        usedVoteCount++;\r\n        usedVotes[usedVoteCount] = userVote(_addr, _id, _vote);\r\n    }\r\n\r\n    // Kullancnn kulland oylar\r\n    function usedVoteList(address _addr)\r\n        public\r\n        view\r\n        returns (uint256[] memory)\r\n    {\r\n        uint256 count = 0;\r\n        uint256 index = 0;\r\n        for (uint256 i = 1; i <= usedVoteCount; i++) {\r\n            if (address(usedVotes[i].addr) == address(_addr)) {\r\n                count++;\r\n            }\r\n        }\r\n        uint256[] memory ids = new uint256[](count);\r\n        for (uint256 i = 1; i <= usedVoteCount; i++) {\r\n            if (address(usedVotes[i].addr) == address(_addr)) {\r\n                ids[index] = i;\r\n                index++;\r\n            }\r\n        }\r\n        return ids;\r\n    }\r\n\r\n    // Kullancnn kulland oy says\r\n    function userUsedVoteCount(address _addr)\r\n        public\r\n        view\r\n        returns (uint256 count)\r\n    {\r\n        uint256 _count = 0;\r\n        for (uint256 i = 1; i <= usedVoteCount; i++) {\r\n            if (address(usedVotes[i].addr) == address(_addr)) {\r\n                _count++;\r\n            }\r\n        }\r\n        return _count;\r\n    }\r\n\r\n    // Kullancnn kullanmad oy says\r\n    function userUnusedVoteCount(address _addr)\r\n        public\r\n        view\r\n        returns (uint256 count)\r\n    {\r\n        uint256 _count = 0;\r\n        for (uint256 i = 1; i <= usedVoteCount; i++) {\r\n            if (address(usedVotes[i].addr) == address(_addr)) {\r\n                _count++;\r\n            }\r\n        }\r\n        return voteCount - _count;\r\n    }\r\n\r\n    // Kullanlan oy bilgisi\r\n    function usedVote(uint256 _id) public view returns (uint256 id, bool vote) {\r\n        // Byle bir kullanlan oy yoksa hata dndr\r\n        require(usedVotes[_id].addr != address(0), \"ERR_USED_VOTE\");\r\n        return (usedVotes[_id].voteId, usedVotes[_id].vote);\r\n    }\r\n\r\n    // Evet olarak kullanlan oy says\r\n    function usedVoteYes(uint256 _id) public view returns (uint256 _count) {\r\n        // Byle bir oylama yoksa sonu alamaz\r\n        require(votes[_id].id != 0, \"ERR_USED_VOTES_YES\");\r\n        uint256 count = 0;\r\n        for (uint256 i = 1; i <= usedVoteCount; i++) {\r\n            if (usedVotes[i].voteId == _id && usedVotes[i].vote == true) {\r\n                count++;\r\n            }\r\n        }\r\n        return count;\r\n    }\r\n\r\n    // Hayr olarak kullanlan oy says\r\n    function usedVoteNo(uint256 _id) public view returns (uint256 _count) {\r\n        // Byle bir oylama yoksa sonu alamaz\r\n        require(votes[_id].id != 0, \"ERR_USED_VOTES_NO\");\r\n        uint256 count = 0;\r\n        for (uint256 i = 1; i <= usedVoteCount; i++) {\r\n            if (usedVotes[i].voteId == _id && usedVotes[i].vote == false) {\r\n                count++;\r\n            }\r\n        }\r\n        return count;\r\n    }\r\n\r\n    // Oylama olutur\r\n    function createVote(\r\n        string memory _subject,\r\n        string memory _detail,\r\n        uint256 _endDate\r\n    ) public onlyAdminRole {\r\n        uint256 _startDate = block.timestamp;\r\n        require(_endDate >= _startDate, \"ERR_CREATE_VOTE\");\r\n        voteCount++;\r\n        votes[voteCount] = Vote(\r\n            voteCount,\r\n            _subject,\r\n            _detail,\r\n            _startDate,\r\n            _endDate,\r\n            openStatus\r\n        );\r\n    }\r\n\r\n    // Bir oyun bilgisini getir\r\n    function getVote(uint256 _id)\r\n        public\r\n        view\r\n        returns (\r\n            uint256 id,\r\n            string memory subject,\r\n            string memory detail,\r\n            uint256 startDate,\r\n            uint256 endDate,\r\n            uint256 status\r\n        )\r\n    {\r\n        require(votes[_id].id != 0, \"ERR_GET_VOTE\");\r\n        return (\r\n            votes[_id].id,\r\n            votes[_id].subject,\r\n            votes[_id].detail,\r\n            votes[_id].startDate,\r\n            votes[_id].endDate,\r\n            votes[_id].status\r\n        );\r\n    }\r\n\r\n    // Oylama durumunu deitir\r\n    function setVoteStatus(uint256 _id, uint256 _status) public onlyAdminRole {\r\n        // Farkl durum kodu gnderilemez\r\n        require(_status >= 0 && _status <= 2, \"ERR_SET_VOTE_STATUS_1\");\r\n        // Bulunamayan Oylama Deitirilemez\r\n        require(votes[_id].id != 0, \"ERR_SET_VOTE_STATUS_2\");\r\n        // Oylama zaten kapalysa deitirilemez\r\n        require(votes[_id].status != 0, \"ERR_SET_VOTE_STATUS_3\");\r\n        // Biti tarihini getiyse deitirilemez\r\n        require(votes[_id].endDate > block.timestamp, \"ERR_SET_VOTE_STATUS_4\");\r\n        votes[_id].status = _status;\r\n    }\r\n}\r\n\r\ncontract VotingApp is Users, Votes {}\r\n",
  "sourcePath": "C:/Users/bayra/Documents/projects/My/ethereum/vote-app-frontend/dapp/contracts/VotingApp.sol",
  "compiler": {
    "name": "solc",
    "version": "0.5.16+commit.9c3226ce.Emscripten.clang"
  },
  "schemaVersion": "3.3.3",
  "updatedAt": "2021-02-11T21:36:17.852Z",
  "networkType": "ethereum",
  "devdoc": {
    "methods": {}
  },
  "userdoc": {
    "methods": {}
  }
}