{
  "contractName": "VotingApp",
  "abi": [
    {
      "constant": false,
      "inputs": [
        {
          "internalType": "string",
          "name": "_subject",
          "type": "string"
        },
        {
          "internalType": "string",
          "name": "_detail",
          "type": "string"
        },
        {
          "internalType": "uint256",
          "name": "_endDate",
          "type": "uint256"
        }
      ],
      "name": "createVote",
      "outputs": [],
      "payable": false,
      "stateMutability": "nonpayable",
      "type": "function"
    },
    {
      "constant": true,
      "inputs": [
        {
          "internalType": "address",
          "name": "_addr",
          "type": "address"
        }
      ],
      "name": "getUser",
      "outputs": [
        {
          "internalType": "string",
          "name": "name",
          "type": "string"
        },
        {
          "internalType": "uint256",
          "name": "roleLevel",
          "type": "uint256"
        }
      ],
      "payable": false,
      "stateMutability": "view",
      "type": "function"
    },
    {
      "constant": true,
      "inputs": [],
      "name": "getUsers",
      "outputs": [
        {
          "internalType": "address[]",
          "name": "",
          "type": "address[]"
        }
      ],
      "payable": false,
      "stateMutability": "view",
      "type": "function"
    },
    {
      "constant": true,
      "inputs": [
        {
          "internalType": "uint256",
          "name": "_id",
          "type": "uint256"
        }
      ],
      "name": "getVote",
      "outputs": [
        {
          "internalType": "uint256",
          "name": "id",
          "type": "uint256"
        },
        {
          "internalType": "string",
          "name": "subject",
          "type": "string"
        },
        {
          "internalType": "string",
          "name": "detail",
          "type": "string"
        },
        {
          "internalType": "uint256",
          "name": "startDate",
          "type": "uint256"
        },
        {
          "internalType": "uint256",
          "name": "endDate",
          "type": "uint256"
        },
        {
          "internalType": "uint256",
          "name": "status",
          "type": "uint256"
        }
      ],
      "payable": false,
      "stateMutability": "view",
      "type": "function"
    },
    {
      "constant": true,
      "inputs": [
        {
          "internalType": "address",
          "name": "_addr",
          "type": "address"
        }
      ],
      "name": "isRegistered",
      "outputs": [
        {
          "internalType": "bool",
          "name": "",
          "type": "bool"
        }
      ],
      "payable": false,
      "stateMutability": "view",
      "type": "function"
    },
    {
      "constant": false,
      "inputs": [
        {
          "internalType": "string",
          "name": "_name",
          "type": "string"
        }
      ],
      "name": "register",
      "outputs": [],
      "payable": false,
      "stateMutability": "nonpayable",
      "type": "function"
    },
    {
      "constant": false,
      "inputs": [
        {
          "internalType": "string",
          "name": "_name",
          "type": "string"
        }
      ],
      "name": "setName",
      "outputs": [],
      "payable": false,
      "stateMutability": "nonpayable",
      "type": "function"
    },
    {
      "constant": false,
      "inputs": [
        {
          "internalType": "address",
          "name": "_addr",
          "type": "address"
        },
        {
          "internalType": "uint256",
          "name": "_roleLevel",
          "type": "uint256"
        }
      ],
      "name": "setUserRole",
      "outputs": [],
      "payable": false,
      "stateMutability": "nonpayable",
      "type": "function"
    },
    {
      "constant": false,
      "inputs": [
        {
          "internalType": "uint256",
          "name": "_id",
          "type": "uint256"
        },
        {
          "internalType": "uint256",
          "name": "_status",
          "type": "uint256"
        }
      ],
      "name": "setVoteStatus",
      "outputs": [],
      "payable": false,
      "stateMutability": "nonpayable",
      "type": "function"
    },
    {
      "constant": false,
      "inputs": [
        {
          "internalType": "uint256",
          "name": "_id",
          "type": "uint256"
        },
        {
          "internalType": "bool",
          "name": "_vote",
          "type": "bool"
        }
      ],
      "name": "useVote",
      "outputs": [],
      "payable": false,
      "stateMutability": "nonpayable",
      "type": "function"
    },
    {
      "constant": true,
      "inputs": [
        {
          "internalType": "uint256",
          "name": "_id",
          "type": "uint256"
        }
      ],
      "name": "usedVote",
      "outputs": [
        {
          "internalType": "bool",
          "name": "",
          "type": "bool"
        }
      ],
      "payable": false,
      "stateMutability": "view",
      "type": "function"
    },
    {
      "constant": true,
      "inputs": [
        {
          "internalType": "address",
          "name": "_addr",
          "type": "address"
        }
      ],
      "name": "usedVoteList",
      "outputs": [
        {
          "internalType": "uint256[]",
          "name": "",
          "type": "uint256[]"
        }
      ],
      "payable": false,
      "stateMutability": "view",
      "type": "function"
    },
    {
      "constant": true,
      "inputs": [
        {
          "internalType": "uint256",
          "name": "_id",
          "type": "uint256"
        }
      ],
      "name": "usedVoteNo",
      "outputs": [
        {
          "internalType": "uint256",
          "name": "_count",
          "type": "uint256"
        }
      ],
      "payable": false,
      "stateMutability": "view",
      "type": "function"
    },
    {
      "constant": true,
      "inputs": [
        {
          "internalType": "uint256",
          "name": "_id",
          "type": "uint256"
        }
      ],
      "name": "usedVoteYes",
      "outputs": [
        {
          "internalType": "uint256",
          "name": "_count",
          "type": "uint256"
        }
      ],
      "payable": false,
      "stateMutability": "view",
      "type": "function"
    },
    {
      "constant": true,
      "inputs": [
        {
          "internalType": "uint256",
          "name": "",
          "type": "uint256"
        }
      ],
      "name": "usedVotes",
      "outputs": [
        {
          "internalType": "address",
          "name": "addr",
          "type": "address"
        },
        {
          "internalType": "uint256",
          "name": "voteId",
          "type": "uint256"
        },
        {
          "internalType": "bool",
          "name": "vote",
          "type": "bool"
        }
      ],
      "payable": false,
      "stateMutability": "view",
      "type": "function"
    },
    {
      "constant": true,
      "inputs": [],
      "name": "voteCount",
      "outputs": [
        {
          "internalType": "uint256",
          "name": "",
          "type": "uint256"
        }
      ],
      "payable": false,
      "stateMutability": "view",
      "type": "function"
    },
    {
      "constant": true,
      "inputs": [
        {
          "internalType": "uint256",
          "name": "",
          "type": "uint256"
        }
      ],
      "name": "votes",
      "outputs": [
        {
          "internalType": "uint256",
          "name": "id",
          "type": "uint256"
        },
        {
          "internalType": "string",
          "name": "subject",
          "type": "string"
        },
        {
          "internalType": "string",
          "name": "detail",
          "type": "string"
        },
        {
          "internalType": "uint256",
          "name": "startDate",
          "type": "uint256"
        },
        {
          "internalType": "uint256",
          "name": "endDate",
          "type": "uint256"
        },
        {
          "internalType": "uint256",
          "name": "status",
          "type": "uint256"
        }
      ],
      "payable": false,
      "stateMutability": "view",
      "type": "function"
    }
  ],
  "bytecode": "0x6080604052600a600155600160025560405180604001604052806040518060400160405280600581526020017f41646d696e0000000000000000000000000000000000000000000000000000008152508152602001600154815250600360008201518160000190805190602001906200007a9291906200042b565b5060208201518160010155505060405180604001604052806040518060400160405280600481526020017f5573657200000000000000000000000000000000000000000000000000000000815250815260200160025481525060056000820151816000019080519060200190620000f39291906200042b565b5060208201518160010155505060006009556000600a556000600b556001600c556002600d556000600f55336000806101000a81548173ffffffffffffffffffffffffffffffffffffffff021916908373ffffffffffffffffffffffffffffffffffffffff1602179055506000809054906101000a900473ffffffffffffffffffffffffffffffffffffffff1660086000600954815260200190815260200160002060006101000a81548173ffffffffffffffffffffffffffffffffffffffff021916908373ffffffffffffffffffffffffffffffffffffffff16021790555060405180606001604052806000809054906101000a900473ffffffffffffffffffffffffffffffffffffffff1673ffffffffffffffffffffffffffffffffffffffff1681526020016040518060400160405280600d81526020017f42617972616d20414c4143414d0000000000000000000000000000000000000081525081526020016003604051806040016040529081600082018054600181600116156101000203166002900480601f016020809104026020016040519081016040528092919081815260200182805460018160011615610100020316600290048015620003005780601f10620002d45761010080835404028352916020019162000300565b820191906000526020600020905b815481529060010190602001808311620002e257829003601f168201915b50505050508152602001600182015481525050815250600760008060009054906101000a900473ffffffffffffffffffffffffffffffffffffffff1673ffffffffffffffffffffffffffffffffffffffff1673ffffffffffffffffffffffffffffffffffffffff16815260200190815260200160002060008201518160000160006101000a81548173ffffffffffffffffffffffffffffffffffffffff021916908373ffffffffffffffffffffffffffffffffffffffff1602179055506020820151816001019080519060200190620003db9291906200042b565b506040820151816002016000820151816000019080519060200190620004039291906200042b565b50602082015181600101555050905050600960008154809291906001019190505550620004da565b828054600181600116156101000203166002900490600052602060002090601f016020900481019282601f106200046e57805160ff19168380011785556200049f565b828001600101855582156200049f579182015b828111156200049e57825182559160200191906001019062000481565b5b509050620004ae9190620004b2565b5090565b620004d791905b80821115620004d3576000816000905550600101620004b9565b5090565b90565b6127fd80620004ea6000396000f3fe608060405234801561001057600080fd5b506004361061010a5760003560e01c8063937cabed116100a2578063c47f002711610071578063c47f002714610863578063c63840711461091e578063c84440311461093c578063f2c298be1461098a578063fe57615014610a455761010a565b8063937cabed14610623578063a5b646771461077f578063b2c9f433146107c1578063c3c5a547146108075761010a565b80635df81330116100de5780635df81330146103555780636f77926b1461048457806376be038f1461054857806389014e5d1461058a5761010a565b8062ce8e3e1461010f578063099643571461016e578063356a1bb6146101ee5780635a55c1f014610226575b600080fd5b610117610a7f565b6040518080602001828103825283818151815260200191508051906020019060200280838360005b8381101561015a57808201518184015260208101905061013f565b505050509050019250505060405180910390f35b61019a6004803603602081101561018457600080fd5b8101908080359060200190929190505050610b55565b604051808473ffffffffffffffffffffffffffffffffffffffff1673ffffffffffffffffffffffffffffffffffffffff16815260200183815260200182151515158152602001935050505060405180910390f35b6102246004803603604081101561020457600080fd5b810190808035906020019092919080359060200190929190505050610bac565b005b6102526004803603602081101561023c57600080fd5b8101908080359060200190929190505050610eb0565b604051808781526020018060200180602001868152602001858152602001848152602001838103835288818151815260200191508051906020019080838360005b838110156102ae578082015181840152602081019050610293565b50505050905090810190601f1680156102db5780820380516001836020036101000a031916815260200191505b50838103825287818151815260200191508051906020019080838360005b838110156103145780820151818401526020810190506102f9565b50505050905090810190601f1680156103415780820380516001836020036101000a031916815260200191505b509850505050505050505060405180910390f35b6103816004803603602081101561036b57600080fd5b810190808035906020019092919050505061111b565b604051808781526020018060200180602001868152602001858152602001848152602001838103835288818151815260200191508051906020019080838360005b838110156103dd5780820151818401526020810190506103c2565b50505050905090810190601f16801561040a5780820380516001836020036101000a031916815260200191505b50838103825287818151815260200191508051906020019080838360005b83811015610443578082015181840152602081019050610428565b50505050905090810190601f1680156104705780820380516001836020036101000a031916815260200191505b509850505050505050505060405180910390f35b6104c66004803603602081101561049a57600080fd5b81019080803573ffffffffffffffffffffffffffffffffffffffff169060200190929190505050611287565b6040518080602001838152602001828103825284818151815260200191508051906020019080838360005b8381101561050c5780820151818401526020810190506104f1565b50505050905090810190601f1680156105395780820380516001836020036101000a031916815260200191505b50935050505060405180910390f35b6105746004803603602081101561055e57600080fd5b8101908080359060200190929190505050611433565b6040518082815260200191505060405180910390f35b6105cc600480360360208110156105a057600080fd5b81019080803573ffffffffffffffffffffffffffffffffffffffff169060200190929190505050611547565b6040518080602001828103825283818151815260200191508051906020019060200280838360005b8381101561060f5780820151818401526020810190506105f4565b505050509050019250505060405180910390f35b61077d6004803603606081101561063957600080fd5b810190808035906020019064010000000081111561065657600080fd5b82018360208201111561066857600080fd5b8035906020019184600183028401116401000000008311171561068a57600080fd5b91908080601f016020809104026020016040519081016040528093929190818152602001838380828437600081840152601f19601f820116905080830192505050505050509192919290803590602001906401000000008111156106ed57600080fd5b8201836020820111156106ff57600080fd5b8035906020019184600183028401116401000000008311171561072157600080fd5b91908080601f016020809104026020016040519081016040528093929190818152602001838380828437600081840152601f19601f820116905080830192505050505050509192919290803590602001909291905050506116cd565b005b6107ab6004803603602081101561079557600080fd5b81019080803590602001909291905050506118c7565b6040518082815260200191505060405180910390f35b6107ed600480360360208110156107d757600080fd5b81019080803590602001909291905050506119db565b604051808215151515815260200191505060405180910390f35b6108496004803603602081101561081d57600080fd5b81019080803573ffffffffffffffffffffffffffffffffffffffff169060200190929190505050611ae0565b604051808215151515815260200191505060405180910390f35b61091c6004803603602081101561087957600080fd5b810190808035906020019064010000000081111561089657600080fd5b8201836020820111156108a857600080fd5b803590602001918460018302840111640100000000831117156108ca57600080fd5b91908080601f016020809104026020016040519081016040528093929190818152602001838380828437600081840152601f19601f820116905080830192505050505050509192919290505050611b7b565b005b610926611c56565b6040518082815260200191505060405180910390f35b6109886004803603604081101561095257600080fd5b81019080803573ffffffffffffffffffffffffffffffffffffffff16906020019092919080359060200190929190505050611c5c565b005b610a43600480360360208110156109a057600080fd5b81019080803590602001906401000000008111156109bd57600080fd5b8201836020820111156109cf57600080fd5b803590602001918460018302840111640100000000831117156109f157600080fd5b91908080601f016020809104026020016040519081016040528093929190818152602001838380828437600081840152601f19601f820116905080830192505050505050509192919290505050611f63565b005b610a7d60048036036040811015610a5b57600080fd5b810190808035906020019092919080351515906020019092919050505061220f565b005b606080600954604051908082528060200260200182016040528015610ab35781602001602082028038833980820191505090505b50905060008090505b600954811015610b4d576008600082815260200190815260200160002060009054906101000a900473ffffffffffffffffffffffffffffffffffffffff16828281518110610b0657fe5b602002602001019073ffffffffffffffffffffffffffffffffffffffff16908173ffffffffffffffffffffffffffffffffffffffff16815250508080600101915050610abc565b508091505090565b60106020528060005260406000206000915090508060000160009054906101000a900473ffffffffffffffffffffffffffffffffffffffff16908060010154908060020160009054906101000a900460ff16905083565b600154600760003373ffffffffffffffffffffffffffffffffffffffff1673ffffffffffffffffffffffffffffffffffffffff1681526020019081526020016000206002016001015414610c68576040517f08c379a00000000000000000000000000000000000000000000000000000000081526004018080602001828103825260138152602001807f4552525f4f4e4c595f41444d494e5f524f4c450000000000000000000000000081525060200191505060405180910390fd5b60008110158015610c7a575060028111155b610cec576040517f08c379a00000000000000000000000000000000000000000000000000000000081526004018080602001828103825260158152602001807f4552525f5345545f564f54455f5354415455535f31000000000000000000000081525060200191505060405180910390fd5b6000600e6000848152602001908152602001600020600001541415610d79576040517f08c379a00000000000000000000000000000000000000000000000000000000081526004018080602001828103825260158152602001807f4552525f5345545f564f54455f5354415455535f32000000000000000000000081525060200191505060405180910390fd5b6000600e6000848152602001908152602001600020600501541415610e06576040517f08c379a00000000000000000000000000000000000000000000000000000000081526004018080602001828103825260158152602001807f4552525f5345545f564f54455f5354415455535f33000000000000000000000081525060200191505060405180910390fd5b42600e60008481526020019081526020016000206004015411610e91576040517f08c379a00000000000000000000000000000000000000000000000000000000081526004018080602001828103825260158152602001807f4552525f5345545f564f54455f5354415455535f34000000000000000000000081525060200191505060405180910390fd5b80600e6000848152602001908152602001600020600501819055505050565b6000606080600080600080600e6000898152602001908152602001600020600001541415610f46576040517f08c379a000000000000000000000000000000000000000000000000000000000815260040180806020018281038252600c8152602001807f4552525f4745545f564f5445000000000000000000000000000000000000000081525060200191505060405180910390fd5b600e600088815260200190815260200160002060000154600e6000898152602001908152602001600020600101600e60008a8152602001908152602001600020600201600e60008b815260200190815260200160002060030154600e60008c815260200190815260200160002060040154600e60008d815260200190815260200160002060050154848054600181600116156101000203166002900480601f0160208091040260200160405190810160405280929190818152602001828054600181600116156101000203166002900480156110635780601f1061103857610100808354040283529160200191611063565b820191906000526020600020905b81548152906001019060200180831161104657829003601f168201915b50505050509450838054600181600116156101000203166002900480601f0160208091040260200160405190810160405280929190818152602001828054600181600116156101000203166002900480156110ff5780601f106110d4576101008083540402835291602001916110ff565b820191906000526020600020905b8154815290600101906020018083116110e257829003601f168201915b5050505050935095509550955095509550955091939550919395565b600e602052806000526040600020600091509050806000015490806001018054600181600116156101000203166002900480601f0160208091040260200160405190810160405280929190818152602001828054600181600116156101000203166002900480156111cd5780601f106111a2576101008083540402835291602001916111cd565b820191906000526020600020905b8154815290600101906020018083116111b057829003601f168201915b505050505090806002018054600181600116156101000203166002900480601f01602080910402602001604051908101604052809291908181526020018280546001816001161561010002031660029004801561126b5780601f106112405761010080835404028352916020019161126b565b820191906000526020600020905b81548152906001019060200180831161124e57829003601f168201915b5050505050908060030154908060040154908060050154905086565b6060600061129483611ae0565b611306576040517f08c379a00000000000000000000000000000000000000000000000000000000081526004018080602001828103825260128152602001807f4552525f4745545f4d595f50524f46494c45000000000000000000000000000081525060200191505060405180910390fd5b600760008473ffffffffffffffffffffffffffffffffffffffff1673ffffffffffffffffffffffffffffffffffffffff168152602001908152602001600020600101600760008573ffffffffffffffffffffffffffffffffffffffff1673ffffffffffffffffffffffffffffffffffffffff16815260200190815260200160002060020160010154818054600181600116156101000203166002900480601f0160208091040260200160405190810160405280929190818152602001828054600181600116156101000203166002900480156114235780601f106113f857610100808354040283529160200191611423565b820191906000526020600020905b81548152906001019060200180831161140657829003601f168201915b5050505050915091509150915091565b600080600e60008481526020019081526020016000206000015414156114c1576040517f08c379a00000000000000000000000000000000000000000000000000000000081526004018080602001828103825260128152602001807f4552525f555345445f564f5445535f594553000000000000000000000000000081525060200191505060405180910390fd5b60008090506000600190505b600f54811161153d578360106000838152602001908152602001600020600101541480156115225750600015156010600083815260200190815260200160002060020160009054906101000a900460ff161515145b156115305781806001019250505b80806001019150506114cd565b5080915050919050565b6060600080905060008090506000600190505b600f5481116115e3578473ffffffffffffffffffffffffffffffffffffffff166010600083815260200190815260200160002060000160009054906101000a900473ffffffffffffffffffffffffffffffffffffffff1673ffffffffffffffffffffffffffffffffffffffff1614156115d65782806001019350505b808060010191505061155a565b506060826040519080825280602002602001820160405280156116155781602001602082028038833980820191505090505b5090506000600190505b600f5481116116c1578573ffffffffffffffffffffffffffffffffffffffff166010600083815260200190815260200160002060000160009054906101000a900473ffffffffffffffffffffffffffffffffffffffff1673ffffffffffffffffffffffffffffffffffffffff1614156116b4578082848151811061169f57fe5b60200260200101818152505082806001019350505b808060010191505061161f565b50809350505050919050565b600154600760003373ffffffffffffffffffffffffffffffffffffffff1673ffffffffffffffffffffffffffffffffffffffff1681526020019081526020016000206002016001015414611789576040517f08c379a00000000000000000000000000000000000000000000000000000000081526004018080602001828103825260138152602001807f4552525f4f4e4c595f41444d494e5f524f4c450000000000000000000000000081525060200191505060405180910390fd5b600042905080821015611804576040517f08c379a000000000000000000000000000000000000000000000000000000000815260040180806020018281038252600f8152602001807f4552525f4352454154455f564f5445000000000000000000000000000000000081525060200191505060405180910390fd5b600a600081548092919060010191905055506040518060c00160405280600a548152602001858152602001848152602001828152602001838152602001600c54815250600e6000600a54815260200190815260200160002060008201518160000155602082015181600101908051906020019061188292919061261c565b50604082015181600201908051906020019061189f92919061261c565b50606082015181600301556080820151816004015560a0820151816005015590505050505050565b600080600e6000848152602001908152602001600020600001541415611955576040517f08c379a00000000000000000000000000000000000000000000000000000000081526004018080602001828103825260128152602001807f4552525f555345445f564f5445535f594553000000000000000000000000000081525060200191505060405180910390fd5b60008090506000600190505b600f5481116119d1578360106000838152602001908152602001600020600101541480156119b65750600115156010600083815260200190815260200160002060020160009054906101000a900460ff161515145b156119c45781806001019250505b8080600101915050611961565b5080915050919050565b60008073ffffffffffffffffffffffffffffffffffffffff166010600084815260200190815260200160002060000160009054906101000a900473ffffffffffffffffffffffffffffffffffffffff1673ffffffffffffffffffffffffffffffffffffffff161415611ab5576040517f08c379a000000000000000000000000000000000000000000000000000000000815260040180806020018281038252600d8152602001807f4552525f555345445f564f54450000000000000000000000000000000000000081525060200191505060405180910390fd5b6010600083815260200190815260200160002060020160009054906101000a900460ff169050919050565b60008073ffffffffffffffffffffffffffffffffffffffff16600760008473ffffffffffffffffffffffffffffffffffffffff1673ffffffffffffffffffffffffffffffffffffffff16815260200190815260200160002060000160009054906101000a900473ffffffffffffffffffffffffffffffffffffffff1673ffffffffffffffffffffffffffffffffffffffff1614159050919050565b6000339050611b8981611ae0565b611bfb576040517f08c379a000000000000000000000000000000000000000000000000000000000815260040180806020018281038252600e8152602001807f4552525f5345545f4e414d455f3100000000000000000000000000000000000081525060200191505060405180910390fd5b81600760008373ffffffffffffffffffffffffffffffffffffffff1673ffffffffffffffffffffffffffffffffffffffff1681526020019081526020016000206001019080519060200190611c5192919061269c565b505050565b600a5481565b600154600760003373ffffffffffffffffffffffffffffffffffffffff1673ffffffffffffffffffffffffffffffffffffffff1681526020019081526020016000206002016001015414611d18576040517f08c379a00000000000000000000000000000000000000000000000000000000081526004018080602001828103825260138152602001807f4552525f4f4e4c595f41444d494e5f524f4c450000000000000000000000000081525060200191505060405180910390fd5b6000809054906101000a900473ffffffffffffffffffffffffffffffffffffffff1673ffffffffffffffffffffffffffffffffffffffff168273ffffffffffffffffffffffffffffffffffffffff161415611ddb576040517f08c379a00000000000000000000000000000000000000000000000000000000081526004018080602001828103825260138152602001807f4552525f5345545f555345525f524f4c455f310000000000000000000000000081525060200191505060405180910390fd5b600254811480611dec575060015481145b611e5e576040517f08c379a00000000000000000000000000000000000000000000000000000000081526004018080602001828103825260138152602001807f4552525f5345545f555345525f524f4c455f320000000000000000000000000081525060200191505060405180910390fd5b600a811415611ee5576003600760008473ffffffffffffffffffffffffffffffffffffffff1673ffffffffffffffffffffffffffffffffffffffff16815260200190815260200160002060020160008201816000019080546001816001161561010002031660029004611ed292919061271c565b5060018201548160010155905050611f5f565b6005600760008473ffffffffffffffffffffffffffffffffffffffff1673ffffffffffffffffffffffffffffffffffffffff16815260200190815260200160002060020160008201816000019080546001816001161561010002031660029004611f5092919061271c565b50600182015481600101559050505b5050565b6000339050611f7181611ae0565b15611fe4576040517f08c379a00000000000000000000000000000000000000000000000000000000081526004018080602001828103825260118152602001807f4552525f49535f5245474953544552454400000000000000000000000000000081525060200191505060405180910390fd5b8060086000600954815260200190815260200160002060006101000a81548173ffffffffffffffffffffffffffffffffffffffff021916908373ffffffffffffffffffffffffffffffffffffffff16021790555060405180606001604052808273ffffffffffffffffffffffffffffffffffffffff1681526020018381526020016005604051806040016040529081600082018054600181600116156101000203166002900480601f01602080910402602001604051908101604052809291908181526020018280546001816001161561010002031660029004801561210b5780601f106120e05761010080835404028352916020019161210b565b820191906000526020600020905b8154815290600101906020018083116120ee57829003601f168201915b50505050508152602001600182015481525050815250600760008373ffffffffffffffffffffffffffffffffffffffff1673ffffffffffffffffffffffffffffffffffffffff16815260200190815260200160002060008201518160000160006101000a81548173ffffffffffffffffffffffffffffffffffffffff021916908373ffffffffffffffffffffffffffffffffffffffff16021790555060208201518160010190805190602001906121c392919061261c565b5060408201518160020160008201518160000190805190602001906121e992919061261c565b506020820151816001015550509050506009600081548092919060010191905055505050565b600033905061221d81611ae0565b61228f576040517f08c379a000000000000000000000000000000000000000000000000000000000815260040180806020018281038252600e8152602001807f4552525f5553455f564f54455f3100000000000000000000000000000000000081525060200191505060405180910390fd5b6000600e600085815260200190815260200160002060000154141561231c576040517f08c379a000000000000000000000000000000000000000000000000000000000815260040180806020018281038252600e8152602001807f4552525f5553455f564f54455f3200000000000000000000000000000000000081525060200191505060405180910390fd5b6000600190505b600f548111612430578173ffffffffffffffffffffffffffffffffffffffff166010600083815260200190815260200160002060000160009054906101000a900473ffffffffffffffffffffffffffffffffffffffff1673ffffffffffffffffffffffffffffffffffffffff161415612423578360106000838152602001908152602001600020600101541415612422576040517f08c379a000000000000000000000000000000000000000000000000000000000815260040180806020018281038252600e8152602001807f4552525f5553455f564f54455f3300000000000000000000000000000000000081525060200191505060405180910390fd5b5b8080600101915050612323565b506000600e60008581526020019081526020016000206005015414156124be576040517f08c379a000000000000000000000000000000000000000000000000000000000815260040180806020018281038252600e8152602001807f4552525f5553455f564f54455f3400000000000000000000000000000000000081525060200191505060405180910390fd5b42600e60008581526020019081526020016000206004015411612549576040517f08c379a000000000000000000000000000000000000000000000000000000000815260040180806020018281038252600e8152602001807f4552525f5553455f564f54455f3500000000000000000000000000000000000081525060200191505060405180910390fd5b600f6000815480929190600101919050555060405180606001604052808273ffffffffffffffffffffffffffffffffffffffff16815260200184815260200183151581525060106000600f54815260200190815260200160002060008201518160000160006101000a81548173ffffffffffffffffffffffffffffffffffffffff021916908373ffffffffffffffffffffffffffffffffffffffff1602179055506020820151816001015560408201518160020160006101000a81548160ff021916908315150217905550905050505050565b828054600181600116156101000203166002900490600052602060002090601f016020900481019282601f1061265d57805160ff191683800117855561268b565b8280016001018555821561268b579182015b8281111561268a57825182559160200191906001019061266f565b5b50905061269891906127a3565b5090565b828054600181600116156101000203166002900490600052602060002090601f016020900481019282601f106126dd57805160ff191683800117855561270b565b8280016001018555821561270b579182015b8281111561270a5782518255916020019190600101906126ef565b5b50905061271891906127a3565b5090565b828054600181600116156101000203166002900490600052602060002090601f016020900481019282601f106127555780548555612792565b8280016001018555821561279257600052602060002091601f016020900482015b82811115612791578254825591600101919060010190612776565b5b50905061279f91906127a3565b5090565b6127c591905b808211156127c15760008160009055506001016127a9565b5090565b9056fea265627a7a72315820de539bd013b30a9de62f33507a11c287db43a8a01679761664fe8ea97997069c64736f6c63430005100032",
  "source": "pragma solidity >=0.4.22 <0.9.0;\r\n\r\n\r\ncontract Users {\r\n\r\n    struct Role {\r\n        string name;\r\n        uint level;\r\n    }\r\n\r\n    struct User {\r\n        address addr;\r\n        string name;\r\n        Role role;\r\n    }\r\n\r\n    address owner;\r\n\r\n    uint adminLevel = 10;\r\n    uint userLevel = 1;\r\n\r\n    Role adminRole = Role(\"Admin\", adminLevel);\r\n    Role userRole = Role(\"User\", userLevel);\r\n\r\n    mapping(address => User) users;\r\n    mapping(uint => address) addresses;\r\n    uint userCount = 0;\r\n\r\n    constructor() public {\r\n        owner = msg.sender;\r\n        addresses[userCount] = owner;\r\n        users[owner] = User(owner, \"Bayram ALACAM\", adminRole);\r\n        userCount++;\r\n    }\r\n\r\n    // Kullanc kaytl m?\r\n    function isRegistered(address _addr) public view returns(bool) {\r\n        return users[_addr].addr != address(0);\r\n    }\r\n\r\n    // Kayt ol\r\n    function register(string memory _name) public {\r\n        address _addr = msg.sender;\r\n        require(!isRegistered(_addr), \"ERR_IS_REGISTERED\");\r\n        addresses[userCount] = _addr;\r\n        users[_addr] = User(_addr, _name, userRole);\r\n        userCount++;\r\n    }\r\n    \r\n    // sim bilgisini gncelle\r\n    function setName(string memory _name) public {\r\n        address _addr = msg.sender;\r\n        require(isRegistered(_addr), \"ERR_SET_NAME_1\");\r\n        users[_addr].name = _name;\r\n    }\r\n    \r\n    // Kullanc bilgisini getir\r\n    function getUser(address _addr) public view returns(string memory name, uint roleLevel) {\r\n        require(isRegistered(_addr), \"ERR_GET_MY_PROFILE\");\r\n        return (users[_addr].name, users[_addr].role.level);\r\n    }\r\n    \r\n    // Kullanc yetkisini deitir\r\n    function setUserRole(address _addr, uint _roleLevel) public onlyAdminRole {\r\n        // Sistem sahibi kendi yetkisini deitiremez\r\n        require(_addr != owner, \"ERR_SET_USER_ROLE_1\");\r\n        // Admin ve User dndaki yetkileri kabul etme\r\n        require(_roleLevel == userLevel || _roleLevel == adminLevel, \"ERR_SET_USER_ROLE_2\");\r\n        if (_roleLevel == 10) users[_addr].role = adminRole;\r\n        else users[_addr].role = userRole;\r\n    }\r\n    \r\n    // Tm kullanclar\r\n    function getUsers() public view returns(address[] memory) {\r\n        address[] memory _addresses = new address[](userCount);\r\n        for (uint i = 0; i < userCount; i++) {\r\n            _addresses[i] = addresses[i];\r\n        }\r\n        return _addresses;\r\n    }\r\n    \r\n    // Sadece Admin yetkisi olan ilem yapabilsin\r\n    modifier onlyAdminRole(){\r\n        require(users[msg.sender].role.level == adminLevel, \"ERR_ONLY_ADMIN_ROLE\");\r\n        _;\r\n    }\r\n}\r\n\r\ncontract Votes is Users {\r\n    \r\n    uint public voteCount = 0;\r\n    \r\n    struct Vote {\r\n        uint id;\r\n        string subject;\r\n        string detail;\r\n        uint startDate;\r\n        uint endDate;\r\n        uint status;\r\n    }\r\n    \r\n    uint closedStatus = 0;\r\n    uint openStatus = 1;\r\n    uint freezeStatus = 2;\r\n    \r\n    mapping(uint => Vote) public votes;\r\n\r\n    \r\n    struct userVote {\r\n        address addr;\r\n        uint voteId;\r\n        bool vote;\r\n    }\r\n    \r\n    uint usedVoteCount = 0;\r\n    mapping(uint => userVote) public usedVotes;\r\n    \r\n    // Oy kullan\r\n    function useVote(uint _id, bool _vote) public {\r\n        address _addr = msg.sender;\r\n        // Kaytl deilse oy kullanamaz\r\n        require(isRegistered(_addr), \"ERR_USE_VOTE_1\");\r\n        // Bulunmayan oylama kullanlamaz\r\n        require(votes[_id].id != 0, \"ERR_USE_VOTE_2\");\r\n        // Daha nce oy kullanldysa kullanlamaz\r\n        for (uint i = 1; i <= usedVoteCount; i++) {\r\n            if (address(usedVotes[i].addr) == address(_addr)) {\r\n                require(usedVotes[i].voteId != _id, \"ERR_USE_VOTE_3\");\r\n            }\r\n        }\r\n        // Oylama zaten kapalysa kullanlamaz\r\n        require(votes[_id].status != 0, \"ERR_USE_VOTE_4\");\r\n        // Biti tarihini getiyse kullanlamaz\r\n        require(votes[_id].endDate > block.timestamp, \"ERR_USE_VOTE_5\");\r\n        usedVoteCount++;\r\n        usedVotes[usedVoteCount] = userVote(_addr, _id, _vote);\r\n    }\r\n    \r\n    // Kullancnn kulland oylar\r\n    function usedVoteList(address _addr) public view returns(uint[] memory) {\r\n        uint count = 0;\r\n        uint index = 0;\r\n        for (uint i = 1; i <= usedVoteCount; i++) {\r\n            if (address(usedVotes[i].addr) == address(_addr)) {\r\n                count++;\r\n            }\r\n        }\r\n        uint[] memory ids = new uint[](count);\r\n        for (uint i = 1; i <= usedVoteCount; i++) {\r\n            if (address(usedVotes[i].addr) == address(_addr)) {\r\n                ids[index] = i;\r\n                index++;\r\n            }\r\n        }\r\n        return ids;\r\n    }\r\n    \r\n    // Kullanlan oy bilgisi\r\n    function usedVote(uint _id) public view returns(bool) {\r\n        // Byle bir kullanlan oy yoksa hata dndr\r\n        require(usedVotes[_id].addr != address(0), \"ERR_USED_VOTE\");\r\n        return usedVotes[_id].vote;\r\n    }\r\n    \r\n    // Evet olarak kullanlan oy says\r\n    function usedVoteYes(uint _id) public view returns (uint _count) {\r\n        // Byle bir oylama yoksa sonu alamaz\r\n        require(votes[_id].id != 0, \"ERR_USED_VOTES_YES\");\r\n        uint count = 0;\r\n        for (uint i = 1; i <= usedVoteCount; i++) {\r\n            if (usedVotes[i].voteId == _id && usedVotes[i].vote == true) {\r\n                count++;\r\n            }\r\n        }\r\n        return count;\r\n    }\r\n    \r\n    // Hayr olarak kullanlan oy says\r\n    function usedVoteNo(uint _id) public view returns (uint _count) {\r\n        // Byle bir oylama yoksa sonu alamaz\r\n        require(votes[_id].id != 0, \"ERR_USED_VOTES_YES\");\r\n        uint count = 0;\r\n        for (uint i = 1; i <= usedVoteCount; i++) {\r\n            if (usedVotes[i].voteId == _id && usedVotes[i].vote == false) {\r\n                count++;\r\n            }\r\n        }\r\n        return count;\r\n    }\r\n\r\n    // Oylama olutur\r\n    function createVote(string memory _subject, string memory _detail, uint _endDate) public onlyAdminRole  {\r\n        uint _startDate = block.timestamp;\r\n        require(_endDate >= _startDate, \"ERR_CREATE_VOTE\");\r\n        voteCount++;\r\n        votes[voteCount] = Vote(voteCount, _subject, _detail, _startDate, _endDate, openStatus);\r\n    }\r\n    \r\n    // Bir oyun bilgisini getir\r\n    function getVote(uint _id) public view returns(uint id, string memory subject, string memory detail, uint startDate, uint endDate, uint status) {\r\n        require(votes[_id].id != 0, \"ERR_GET_VOTE\");\r\n        return (votes[_id].id, votes[_id].subject, votes[_id].detail, votes[_id].startDate, votes[_id].endDate, votes[_id].status);\r\n    }\r\n    \r\n    // Oylama durumunu deitir\r\n    function setVoteStatus(uint _id, uint _status) public onlyAdminRole {\r\n        // Farkl durum kodu gnderilemez\r\n        require(_status >= 0 && _status <= 2, \"ERR_SET_VOTE_STATUS_1\");\r\n        // Bulunamayan Oylama Deitirilemez\r\n        require(votes[_id].id != 0, \"ERR_SET_VOTE_STATUS_2\");\r\n        // Oylama zaten kapalysa deitirilemez\r\n        require(votes[_id].status != 0, \"ERR_SET_VOTE_STATUS_3\");\r\n        // Biti tarihini getiyse deitirilemez\r\n        require(votes[_id].endDate > block.timestamp, \"ERR_SET_VOTE_STATUS_4\");\r\n        votes[_id].status = _status;\r\n    }\r\n    \r\n}\r\n\r\ncontract VotingApp is Users, Votes {}",
  "sourcePath": "C:/Users/bayra/Documents/projects/My/ethereum/vote-app-frontend/dapp/contracts/VotingApp.sol",
  "compiler": {
    "name": "solc",
    "version": "0.5.16+commit.9c3226ce.Emscripten.clang"
  },
  "schemaVersion": "3.3.3",
  "updatedAt": "2021-02-11T14:37:42.663Z",
  "networkType": "ethereum",
  "devdoc": {
    "methods": {}
  },
  "userdoc": {
    "methods": {}
  }
}