{
  "contractName": "VotingApp",
  "abi": [
    {
      "constant": false,
      "inputs": [
        {
          "internalType": "string",
          "name": "_subject",
          "type": "string"
        },
        {
          "internalType": "string",
          "name": "_detail",
          "type": "string"
        },
        {
          "internalType": "uint256",
          "name": "_startDate",
          "type": "uint256"
        },
        {
          "internalType": "uint256",
          "name": "_endDate",
          "type": "uint256"
        }
      ],
      "name": "createVote",
      "outputs": [],
      "payable": false,
      "stateMutability": "nonpayable",
      "type": "function"
    },
    {
      "constant": true,
      "inputs": [
        {
          "internalType": "address",
          "name": "_addr",
          "type": "address"
        }
      ],
      "name": "getUser",
      "outputs": [
        {
          "internalType": "string",
          "name": "name",
          "type": "string"
        },
        {
          "internalType": "uint256",
          "name": "roleLevel",
          "type": "uint256"
        }
      ],
      "payable": false,
      "stateMutability": "view",
      "type": "function"
    },
    {
      "constant": true,
      "inputs": [],
      "name": "getUsers",
      "outputs": [
        {
          "internalType": "address[]",
          "name": "",
          "type": "address[]"
        }
      ],
      "payable": false,
      "stateMutability": "view",
      "type": "function"
    },
    {
      "constant": true,
      "inputs": [
        {
          "internalType": "uint256",
          "name": "_id",
          "type": "uint256"
        }
      ],
      "name": "getVote",
      "outputs": [
        {
          "internalType": "uint256",
          "name": "id",
          "type": "uint256"
        },
        {
          "internalType": "string",
          "name": "subject",
          "type": "string"
        },
        {
          "internalType": "string",
          "name": "detail",
          "type": "string"
        },
        {
          "internalType": "uint256",
          "name": "startDate",
          "type": "uint256"
        },
        {
          "internalType": "uint256",
          "name": "endDate",
          "type": "uint256"
        },
        {
          "internalType": "uint256",
          "name": "status",
          "type": "uint256"
        }
      ],
      "payable": false,
      "stateMutability": "view",
      "type": "function"
    },
    {
      "constant": true,
      "inputs": [
        {
          "internalType": "address",
          "name": "_addr",
          "type": "address"
        }
      ],
      "name": "isRegistered",
      "outputs": [
        {
          "internalType": "bool",
          "name": "",
          "type": "bool"
        }
      ],
      "payable": false,
      "stateMutability": "view",
      "type": "function"
    },
    {
      "constant": false,
      "inputs": [
        {
          "internalType": "string",
          "name": "_name",
          "type": "string"
        }
      ],
      "name": "register",
      "outputs": [],
      "payable": false,
      "stateMutability": "nonpayable",
      "type": "function"
    },
    {
      "constant": false,
      "inputs": [
        {
          "internalType": "uint256",
          "name": "_id",
          "type": "uint256"
        },
        {
          "internalType": "uint256",
          "name": "_status",
          "type": "uint256"
        }
      ],
      "name": "setVoteStatus",
      "outputs": [],
      "payable": false,
      "stateMutability": "nonpayable",
      "type": "function"
    },
    {
      "constant": true,
      "inputs": [],
      "name": "voteCount",
      "outputs": [
        {
          "internalType": "uint256",
          "name": "",
          "type": "uint256"
        }
      ],
      "payable": false,
      "stateMutability": "view",
      "type": "function"
    },
    {
      "constant": true,
      "inputs": [
        {
          "internalType": "uint256",
          "name": "",
          "type": "uint256"
        }
      ],
      "name": "votes",
      "outputs": [
        {
          "internalType": "uint256",
          "name": "id",
          "type": "uint256"
        },
        {
          "internalType": "string",
          "name": "subject",
          "type": "string"
        },
        {
          "internalType": "string",
          "name": "detail",
          "type": "string"
        },
        {
          "internalType": "uint256",
          "name": "startDate",
          "type": "uint256"
        },
        {
          "internalType": "uint256",
          "name": "endDate",
          "type": "uint256"
        },
        {
          "internalType": "uint256",
          "name": "status",
          "type": "uint256"
        }
      ],
      "payable": false,
      "stateMutability": "view",
      "type": "function"
    }
  ],
  "bytecode": "0x6080604052600a600155600160025560405180604001604052806040518060400160405280600581526020017f41646d696e0000000000000000000000000000000000000000000000000000008152508152602001600154815250600360008201518160000190805190602001906200007a92919062000426565b5060208201518160010155505060405180604001604052806040518060400160405280600481526020017f5573657200000000000000000000000000000000000000000000000000000000815250815260200160025481525060056000820151816000019080519060200190620000f392919062000426565b5060208201518160010155505060006009556000600a556000600b556001600c556002600d55336000806101000a81548173ffffffffffffffffffffffffffffffffffffffff021916908373ffffffffffffffffffffffffffffffffffffffff1602179055506000809054906101000a900473ffffffffffffffffffffffffffffffffffffffff1660086000600954815260200190815260200160002060006101000a81548173ffffffffffffffffffffffffffffffffffffffff021916908373ffffffffffffffffffffffffffffffffffffffff16021790555060405180606001604052806000809054906101000a900473ffffffffffffffffffffffffffffffffffffffff1673ffffffffffffffffffffffffffffffffffffffff1681526020016040518060400160405280600d81526020017f42617972616d20414c4143414d0000000000000000000000000000000000000081525081526020016003604051806040016040529081600082018054600181600116156101000203166002900480601f016020809104026020016040519081016040528092919081815260200182805460018160011615610100020316600290048015620002fb5780601f10620002cf57610100808354040283529160200191620002fb565b820191906000526020600020905b815481529060010190602001808311620002dd57829003601f168201915b50505050508152602001600182015481525050815250600760008060009054906101000a900473ffffffffffffffffffffffffffffffffffffffff1673ffffffffffffffffffffffffffffffffffffffff1673ffffffffffffffffffffffffffffffffffffffff16815260200190815260200160002060008201518160000160006101000a81548173ffffffffffffffffffffffffffffffffffffffff021916908373ffffffffffffffffffffffffffffffffffffffff1602179055506020820151816001019080519060200190620003d692919062000426565b506040820151816002016000820151816000019080519060200190620003fe92919062000426565b50602082015181600101555050905050600960008154809291906001019190505550620004d5565b828054600181600116156101000203166002900490600052602060002090601f016020900481019282601f106200046957805160ff19168380011785556200049a565b828001600101855582156200049a579182015b82811115620004995782518255916020019190600101906200047c565b5b509050620004a99190620004ad565b5090565b620004d291905b80821115620004ce576000816000905550600101620004b4565b5090565b90565b6115d380620004e56000396000f3fe608060405234801561001057600080fd5b50600436106100925760003560e01c80636f77926b116100665780636f77926b1461038c578063c3c5a54714610450578063c6384071146104ac578063f2c298be146104ca578063f9d793d11461058557610092565b8062ce8e3e14610097578063356a1bb6146100f65780635a55c1f01461012e5780635df813301461025d575b600080fd5b61009f6106eb565b6040518080602001828103825283818151815260200191508051906020019060200280838360005b838110156100e25780820151818401526020810190506100c7565b505050509050019250505060405180910390f35b61012c6004803603604081101561010c57600080fd5b8101908080359060200190929190803590602001909291905050506107c1565b005b61015a6004803603602081101561014457600080fd5b8101908080359060200190929190505050610aaa565b604051808781526020018060200180602001868152602001858152602001848152602001838103835288818151815260200191508051906020019080838360005b838110156101b657808201518184015260208101905061019b565b50505050905090810190601f1680156101e35780820380516001836020036101000a031916815260200191505b50838103825287818151815260200191508051906020019080838360005b8381101561021c578082015181840152602081019050610201565b50505050905090810190601f1680156102495780820380516001836020036101000a031916815260200191505b509850505050505050505060405180910390f35b6102896004803603602081101561027357600080fd5b8101908080359060200190929190505050610d15565b604051808781526020018060200180602001868152602001858152602001848152602001838103835288818151815260200191508051906020019080838360005b838110156102e55780820151818401526020810190506102ca565b50505050905090810190601f1680156103125780820380516001836020036101000a031916815260200191505b50838103825287818151815260200191508051906020019080838360005b8381101561034b578082015181840152602081019050610330565b50505050905090810190601f1680156103785780820380516001836020036101000a031916815260200191505b509850505050505050505060405180910390f35b6103ce600480360360208110156103a257600080fd5b81019080803573ffffffffffffffffffffffffffffffffffffffff169060200190929190505050610e81565b6040518080602001838152602001828103825284818151815260200191508051906020019080838360005b838110156104145780820151818401526020810190506103f9565b50505050905090810190601f1680156104415780820380516001836020036101000a031916815260200191505b50935050505060405180910390f35b6104926004803603602081101561046657600080fd5b81019080803573ffffffffffffffffffffffffffffffffffffffff16906020019092919050505061102d565b604051808215151515815260200191505060405180910390f35b6104b46110c8565b6040518082815260200191505060405180910390f35b610583600480360360208110156104e057600080fd5b81019080803590602001906401000000008111156104fd57600080fd5b82018360208201111561050f57600080fd5b8035906020019184600183028401116401000000008311171561053157600080fd5b91908080601f016020809104026020016040519081016040528093929190818152602001838380828437600081840152601f19601f8201169050808301925050505050505091929192905050506110ce565b005b6106e96004803603608081101561059b57600080fd5b81019080803590602001906401000000008111156105b857600080fd5b8201836020820111156105ca57600080fd5b803590602001918460018302840111640100000000831117156105ec57600080fd5b91908080601f016020809104026020016040519081016040528093929190818152602001838380828437600081840152601f19601f8201169050808301925050505050505091929192908035906020019064010000000081111561064f57600080fd5b82018360208201111561066157600080fd5b8035906020019184600183028401116401000000008311171561068357600080fd5b91908080601f016020809104026020016040519081016040528093929190818152602001838380828437600081840152601f19601f820116905080830192505050505050509192919290803590602001909291908035906020019092919050505061137a565b005b60608060095460405190808252806020026020018201604052801561071f5781602001602082028038833980820191505090505b50905060008090505b6009548110156107b9576008600082815260200190815260200160002060009054906101000a900473ffffffffffffffffffffffffffffffffffffffff1682828151811061077257fe5b602002602001019073ffffffffffffffffffffffffffffffffffffffff16908173ffffffffffffffffffffffffffffffffffffffff16815250508080600101915050610728565b508091505090565b600154600760003373ffffffffffffffffffffffffffffffffffffffff1673ffffffffffffffffffffffffffffffffffffffff168152602001908152602001600020600201600101541461087d576040517f08c379a00000000000000000000000000000000000000000000000000000000081526004018080602001828103825260138152602001807f4552525f4f4e4c595f41444d494e5f524f4c450000000000000000000000000081525060200191505060405180910390fd5b6000811015801561088f575060028111155b610901576040517f08c379a00000000000000000000000000000000000000000000000000000000081526004018080602001828103825260158152602001807f4552525f5345545f564f54455f5354415455535f31000000000000000000000081525060200191505060405180910390fd5b6000600e600084815260200190815260200160002060000154141561098e576040517f08c379a00000000000000000000000000000000000000000000000000000000081526004018080602001828103825260158152602001807f4552525f5345545f564f54455f5354415455535f32000000000000000000000081525060200191505060405180910390fd5b6000600e6000848152602001908152602001600020600501541415610a1b576040517f08c379a00000000000000000000000000000000000000000000000000000000081526004018080602001828103825260158152602001807f4552525f5345545f564f54455f5354415455535f33000000000000000000000081525060200191505060405180910390fd5b42600e60008481526020019081526020016000206004015411610aa6576040517f08c379a00000000000000000000000000000000000000000000000000000000081526004018080602001828103825260158152602001807f4552525f5345545f424f54455f5354415455535f34000000000000000000000081525060200191505060405180910390fd5b5050565b6000606080600080600080600e6000898152602001908152602001600020600001541415610b40576040517f08c379a000000000000000000000000000000000000000000000000000000000815260040180806020018281038252600c8152602001807f4552525f4745545f564f5445000000000000000000000000000000000000000081525060200191505060405180910390fd5b600e600088815260200190815260200160002060000154600e6000898152602001908152602001600020600101600e60008a8152602001908152602001600020600201600e60008b815260200190815260200160002060030154600e60008c815260200190815260200160002060040154600e60008d815260200190815260200160002060050154848054600181600116156101000203166002900480601f016020809104026020016040519081016040528092919081815260200182805460018160011615610100020316600290048015610c5d5780601f10610c3257610100808354040283529160200191610c5d565b820191906000526020600020905b815481529060010190602001808311610c4057829003601f168201915b50505050509450838054600181600116156101000203166002900480601f016020809104026020016040519081016040528092919081815260200182805460018160011615610100020316600290048015610cf95780601f10610cce57610100808354040283529160200191610cf9565b820191906000526020600020905b815481529060010190602001808311610cdc57829003601f168201915b5050505050935095509550955095509550955091939550919395565b600e602052806000526040600020600091509050806000015490806001018054600181600116156101000203166002900480601f016020809104026020016040519081016040528092919081815260200182805460018160011615610100020316600290048015610dc75780601f10610d9c57610100808354040283529160200191610dc7565b820191906000526020600020905b815481529060010190602001808311610daa57829003601f168201915b505050505090806002018054600181600116156101000203166002900480601f016020809104026020016040519081016040528092919081815260200182805460018160011615610100020316600290048015610e655780601f10610e3a57610100808354040283529160200191610e65565b820191906000526020600020905b815481529060010190602001808311610e4857829003601f168201915b5050505050908060030154908060040154908060050154905086565b60606000610e8e8361102d565b610f00576040517f08c379a00000000000000000000000000000000000000000000000000000000081526004018080602001828103825260128152602001807f4552525f4745545f4d595f50524f46494c45000000000000000000000000000081525060200191505060405180910390fd5b600760008473ffffffffffffffffffffffffffffffffffffffff1673ffffffffffffffffffffffffffffffffffffffff168152602001908152602001600020600101600760008573ffffffffffffffffffffffffffffffffffffffff1673ffffffffffffffffffffffffffffffffffffffff16815260200190815260200160002060020160010154818054600181600116156101000203166002900480601f01602080910402602001604051908101604052809291908181526020018280546001816001161561010002031660029004801561101d5780601f10610ff25761010080835404028352916020019161101d565b820191906000526020600020905b81548152906001019060200180831161100057829003601f168201915b5050505050915091509150915091565b60008073ffffffffffffffffffffffffffffffffffffffff16600760008473ffffffffffffffffffffffffffffffffffffffff1673ffffffffffffffffffffffffffffffffffffffff16815260200190815260200160002060000160009054906101000a900473ffffffffffffffffffffffffffffffffffffffff1673ffffffffffffffffffffffffffffffffffffffff1614159050919050565b600a5481565b60003390506110dc8161102d565b1561114f576040517f08c379a00000000000000000000000000000000000000000000000000000000081526004018080602001828103825260118152602001807f4552525f49535f5245474953544552454400000000000000000000000000000081525060200191505060405180910390fd5b8060086000600954815260200190815260200160002060006101000a81548173ffffffffffffffffffffffffffffffffffffffff021916908373ffffffffffffffffffffffffffffffffffffffff16021790555060405180606001604052808273ffffffffffffffffffffffffffffffffffffffff1681526020018381526020016005604051806040016040529081600082018054600181600116156101000203166002900480601f0160208091040260200160405190810160405280929190818152602001828054600181600116156101000203166002900480156112765780601f1061124b57610100808354040283529160200191611276565b820191906000526020600020905b81548152906001019060200180831161125957829003601f168201915b50505050508152602001600182015481525050815250600760008373ffffffffffffffffffffffffffffffffffffffff1673ffffffffffffffffffffffffffffffffffffffff16815260200190815260200160002060008201518160000160006101000a81548173ffffffffffffffffffffffffffffffffffffffff021916908373ffffffffffffffffffffffffffffffffffffffff160217905550602082015181600101908051906020019061132e9291906114f9565b5060408201518160020160008201518160000190805190602001906113549291906114f9565b506020820151816001015550509050506009600081548092919060010191905055505050565b600154600760003373ffffffffffffffffffffffffffffffffffffffff1673ffffffffffffffffffffffffffffffffffffffff1681526020019081526020016000206002016001015414611436576040517f08c379a00000000000000000000000000000000000000000000000000000000081526004018080602001828103825260138152602001807f4552525f4f4e4c595f41444d494e5f524f4c450000000000000000000000000081525060200191505060405180910390fd5b600a600081548092919060010191905055506040518060c00160405280600a548152602001858152602001848152602001838152602001828152602001600c54815250600e6000600a5481526020019081526020016000206000820151816000015560208201518160010190805190602001906114b49291906114f9565b5060408201518160020190805190602001906114d19291906114f9565b50606082015181600301556080820151816004015560a0820151816005015590505050505050565b828054600181600116156101000203166002900490600052602060002090601f016020900481019282601f1061153a57805160ff1916838001178555611568565b82800160010185558215611568579182015b8281111561156757825182559160200191906001019061154c565b5b5090506115759190611579565b5090565b61159b91905b8082111561159757600081600090555060010161157f565b5090565b9056fea265627a7a72315820b823f5a6afdb0009303899d42863a52da5e697bd858e32a8a07c154727868c5764736f6c63430005100032",
  "source": "pragma solidity >=0.4.22 <0.9.0;\r\n\r\n\r\ncontract Users {\r\n\r\n    struct Role {\r\n        string name;\r\n        uint level;\r\n    }\r\n\r\n    struct User {\r\n        address addr;\r\n        string name;\r\n        Role role;\r\n    }\r\n\r\n    address owner;\r\n\r\n    uint adminLevel = 10;\r\n    uint userLevel = 1;\r\n\r\n    Role adminRole = Role(\"Admin\", adminLevel);\r\n    Role userRole = Role(\"User\", userLevel);\r\n\r\n    mapping(address => User) users;\r\n    mapping(uint => address) addresses;\r\n    uint userCount = 0;\r\n\r\n    constructor() public {\r\n        owner = msg.sender;\r\n        addresses[userCount] = owner;\r\n        users[owner] = User(owner, \"Bayram ALACAM\", adminRole);\r\n        userCount++;\r\n    }\r\n\r\n    // Kullanıcı kayıtlı mı?\r\n    function isRegistered(address _addr) public view returns(bool) {\r\n        return users[_addr].addr != address(0);\r\n    }\r\n\r\n    // Kayıt ol\r\n    function register(string memory _name) public {\r\n        address _addr = msg.sender;\r\n        require(!isRegistered(_addr), \"ERR_IS_REGISTERED\");\r\n        addresses[userCount] = _addr;\r\n        users[_addr] = User(_addr, _name, userRole);\r\n        userCount++;\r\n    }\r\n    \r\n    // Kullanıcı bilgisini getir\r\n    function getUser(address _addr) public view returns(string memory name, uint roleLevel) {\r\n        require(isRegistered(_addr), \"ERR_GET_MY_PROFILE\");\r\n        return (users[_addr].name, users[_addr].role.level);\r\n    }\r\n    \r\n    // Tüm kullanıcılar\r\n    function getUsers() public view returns(address[] memory) {\r\n        address[] memory _addresses = new address[](userCount);\r\n        for (uint i = 0; i < userCount; i++) {\r\n            _addresses[i] = addresses[i];\r\n        }\r\n        return _addresses;\r\n    }\r\n    \r\n    // Sadece Admin yetkisi olan işlem yapabilsin\r\n    modifier onlyAdminRole(){\r\n        require(users[msg.sender].role.level == adminLevel, \"ERR_ONLY_ADMIN_ROLE\");\r\n        _;\r\n    }\r\n}\r\n\r\ncontract Votes is Users {\r\n    \r\n    uint public voteCount = 0;\r\n    \r\n    struct Vote {\r\n        uint id;\r\n        string subject;\r\n        string detail;\r\n        uint startDate;\r\n        uint endDate;\r\n        uint status;\r\n    }\r\n    \r\n    uint closedStatus = 0;\r\n    uint openStatus = 1;\r\n    uint freezeStatus = 2;\r\n    \r\n    mapping(uint => Vote) public votes;\r\n    \r\n    mapping(address => uint) usedVotes;\r\n\r\n    // Oylama oluştur\r\n    function createVote(string memory _subject, string memory _detail, uint _startDate, uint _endDate) public onlyAdminRole  {\r\n        voteCount++;\r\n        votes[voteCount] = Vote(voteCount, _subject, _detail, _startDate, _endDate, openStatus);\r\n    }\r\n    \r\n    // Bir oyun bilgisini getir\r\n    function getVote(uint _id) public view returns(uint id, string memory subject, string memory detail, uint startDate, uint endDate, uint status) {\r\n        require(votes[_id].id != 0, \"ERR_GET_VOTE\");\r\n        return (votes[_id].id, votes[_id].subject, votes[_id].detail, votes[_id].startDate, votes[_id].endDate, votes[_id].status);\r\n    }\r\n    \r\n    // Oylama durumunu değiştir\r\n    function setVoteStatus(uint _id, uint _status) public onlyAdminRole {\r\n        // Farklı durum kodu gönderilemez\r\n        require(_status >= 0 && _status <= 2, \"ERR_SET_VOTE_STATUS_1\");\r\n        // Bulunamayan Oylama Değiştirilemez\r\n        require(votes[_id].id != 0, \"ERR_SET_VOTE_STATUS_2\");\r\n        // Oylama zaten kapalıysa değiştirilemez\r\n        require(votes[_id].status != 0, \"ERR_SET_VOTE_STATUS_3\");\r\n        // Bitiş tarihini geçtiyse değiştirilemez\r\n        require(votes[_id].endDate > block.timestamp, \"ERR_SET_BOTE_STATUS_4\");\r\n    }\r\n    \r\n}\r\n\r\ncontract VotingApp is Users, Votes {}",
  "sourcePath": "C:/Users/bayra/Documents/projects/My/ethereum/vote-app-frontend/dapp/contracts/VotingApp.sol",
  "compiler": {
    "name": "solc",
    "version": "0.5.16+commit.9c3226ce.Emscripten.clang"
  },
  "schemaVersion": "3.3.3",
  "updatedAt": "2021-02-08T17:10:12.257Z",
  "networkType": "ethereum",
  "devdoc": {
    "methods": {}
  },
  "userdoc": {
    "methods": {}
  }
}